:020000040800F2
:10000000005000200D23000841210008472100086E
:100010004D2100085321000859210008000000006C
:10002000000000000000000000000000D16900088E
:100030005F21000800000000B16B0008F96B0008A8
:1000400055230008552300085523000855230008B0
:1000500055230008552300085523000855230008A0
:100060005523000855230008552300085523000890
:100070005523000855230008552300085523000880
:100080005523000855230008552300085523000870
:100090005523000855230008552300085523000860
:1000A0005523000855230008552300085523000850
:1000B00055230008552300086D210008552300082A
:1000C0005523000855230008552300085523000830
:1000D0005523000855230008552300085523000820
:1000E0005523000855230008552300080000000090
:1000F0000000000000000000000000000000000000
:0C01000000000000000000005FF808F1A3
:1001100010B5054C237833B9044B13B10448AFF341
:1001200000800123237010BDF001002000000000BA
:1001300070B9000808B5034B1BB103490348AFF37E
:10014000008008BD00000000F401002070B9000824
:10015000034613F8012B002AFBD1181A0138704707
:1001600081F0004102E000BF83F0004330B54FEA68
:1001700041044FEA430594EA050F08BF90EA020FD5
:100180001FBF54EA000C55EA020C7FEA645C7FEA68
:10019000655C00F0E2804FEA5454D4EB5555B8BF8B
:1001A0006D420CDD2C4480EA020281EA030382EAFC
:1001B000000083EA010180EA020281EA0303362D8E
:1001C00088BF30BD11F0004F4FEA01314FF4801C61
:1001D0004CEA113102D0404261EB410113F0004F73
:1001E0004FEA03334CEA133302D0524263EB43032A
:1001F00094EA050F00F0A780A4F10104D5F1200EC8
:100200000DDB02FA0EFC22FA05F2801841F1000122
:1002100003FA0EF2801843FA05F359410EE0A5F1F6
:1002200020050EF1200E012A03FA0EFC28BF4CF027
:10023000020C43FA05F3C01851EBE37101F00045DD
:1002400007D54FF0000EDCF1000C7EEB00006EEBEA
:100250000101B1F5801F1BD3B1F5001F0CD3490874
:100260005FEA30004FEA3C0C04F101044FEA4452CB
:1002700012F5800F80F09A80BCF1004F08BF5FEA52
:10028000500C50F1000041EB045141EA050130BD32
:100290005FEA4C0C404141EB0101013C28BFB1F544
:1002A000801FE9D291F0000F04BF01460020B1FA8F
:1002B00081F308BF2033A3F10B03B3F120020CDA62
:1002C0000C3208DD02F1140CC2F10C0201FA0CF040
:1002D00021FA02F10CE002F11402D8BFC2F1200CA5
:1002E00001FA02F120FA0CFCDCBF41EA0C0190405B
:1002F000E41AA2BF01EB0451294330BD6FEA0404A4
:100300001F3C1CDA0C340EDC04F11404C4F120028E
:1003100020FA04F001FA02F340EA030021FA04F3A0
:1003200045EA030130BDC4F10C04C4F1200220FAF7
:1003300002F001FA04F340EA0300294630BD21FA35
:1003400004F0294630BD94F0000F83F4801306BFFB
:1003500081F480110134013D4EE77FEA645C18BFEF
:100360007FEA655C29D094EA050F08BF90EA020F86
:1003700005D054EA000C04BF1946104630BD91EA7E
:10038000030F1EBF0021002030BD5FEA545C05D181
:100390004000494128BF41F0004130BD14F58004C0
:1003A0003CBF01F5801130BD01F0004545F0FE4134
:1003B00041F470014FF0000030BD7FEA645C1ABF69
:1003C000194610467FEA655C1CBF0B46024650EAA0
:1003D000013406BF52EA033591EA030F41F40021CC
:1003E00030BD00BF90F0000F04BF0021704730B552
:1003F0004FF4806404F132044FF000054FF0000127
:1004000050E700BF90F0000F04BF0021704730B5E7
:100410004FF4806404F1320410F0004548BF4042BC
:100420004FF000013EE700BF42004FEAE2014FEA11
:1004300031014FEA02701FBF12F07F4393F07F4FEC
:1004400081F06051704732F07F4208BF704793F0EF
:100450007F4F04BF41F40021704730B54FF4607402
:1004600001F0004521F000411CE700BF50EA010205
:1004700008BF704730B54FF000050AE050EA0102AE
:1004800008BF704730B511F0004502D5404261EB1E
:1004900041014FF4806404F132045FEA915C3FF45F
:1004A000D8AE4FF003025FEADC0C18BF03325FEAFC
:1004B000DC0C18BF033202EBDC02C2F1200300FAAD
:1004C00003FC20FA02F001FA03FE40EA0E0021FAD2
:1004D00002F11444BDE600BF70B54FF0FF0C4CF4C0
:1004E000E06C1CEA11541DBF1CEA135594EA0C0F72
:1004F00095EA0C0F00F0DEF82C4481EA030621EAAD
:100500004C5123EA4C5350EA013518BF52EA0335E7
:1005100041F4801143F4801338D0A0FB02CE4FF099
:100520000005E1FB02E506F00042E0FB03E54FF0C9
:100530000006E1FB03569CF0000F18BF4EF0010EC1
:10054000A4F1FF04B6F5007F64F5407404D25FEABD
:100550004E0E6D4146EB060642EAC62141EA555170
:100560004FEAC52040EA5E504FEACE2EB4F1FD0CB2
:1005700088BFBCF5E06F1ED8BEF1004F08BF5FEA30
:10058000500E50F1000041EB045170BD06F00046E2
:1005900046EA010140EA020081EA0301B4EB5C048F
:1005A000C2BFD4EB0C0541EA045170BD41F4801187
:1005B0004FF0000E013C00F3AB8014F1360FDEBFAC
:1005C000002001F0004170BDC4F10004203C35DA88
:1005D0000C341BDC04F11404C4F1200500FA05F30B
:1005E00020FA04F001FA05F240EA020001F00042AC
:1005F00021F0004110EBD37021FA04F642EB060122
:100600005EEA430E08BF20EAD37070BDC4F10C044B
:10061000C4F1200500FA04F320FA05F001FA04F20F
:1006200040EA020001F0004110EBD37041F10001FB
:100630005EEA430E08BF20EAD37070BDC4F1200506
:1006400000FA05F24EEA020E20FA04F301FA05F26E
:1006500043EA020321FA04F001F0004121FA04F216
:1006600020EA020000EBD3705EEA430E08BF20EAE6
:10067000D37070BD94F0000F0FD101F00046400020
:1006800041EB010111F4801F08BF013CF7D041EAA2
:10069000060195F0000F18BF704703F000465200A6
:1006A00043EB030313F4801F08BF013DF7D043EA77
:1006B0000603704794EA0C0F0CEA135518BF95EA2D
:1006C0000C0F0CD050EA410618BF52EA4306D1D1B4
:1006D00081EA030101F000414FF0000070BD50EAD3
:1006E000410606BF1046194652EA430619D094EA5D
:1006F0000C0F02D150EA013613D195EA0C0F05D147
:1007000052EA03361CBF104619460AD181EA03019A
:1007100001F0004141F0FE4141F470014FF0000052
:1007200070BD41F0FE4141F4780170BD70B54FF0ED
:10073000FF0C4CF4E06C1CEA11541DBF1CEA13556D
:1007400094EA0C0F95EA0C0F00F0A7F8A4EB05044F
:1007500081EA030E52EA03354FEA013100F0888046
:100760004FEA03334FF0805545EA131343EA12630F
:100770004FEA022245EA111545EA10654FEA0026C4
:100780000EF000419D4208BF964244F1FD0404F57D
:10079000407402D25B084FEA3202B61A65EB0305D9
:1007A0005B084FEA32024FF480104FF4002CB6EB96
:1007B000020E75EB030E22BFB61A754640EA0C0016
:1007C0005B084FEA3202B6EB020E75EB030E22BF56
:1007D000B61A754640EA5C005B084FEA3202B6EB97
:1007E000020E75EB030E22BFB61A754640EA9C0056
:1007F0005B084FEA3202B6EB020E75EB030E22BF26
:10080000B61A754640EADC0055EA060E18D04FEAE3
:10081000051545EA16754FEA06164FEAC30343EA83
:1008200052734FEAC2025FEA1C1CC0D111F4801F50
:100830000BD141EA00014FF000004FF0004CB6E749
:1008400011F4801F04BF01430020B4F1FD0C88BFE8
:10085000BCF5E06F3FF6AFAEB5EB030C04BFB6EBF3
:10086000020C5FEA500C50F1000041EB045170BDE6
:100870000EF0004E4EEA113114EB5C04C2BFD4EB13
:100880000C0541EA045170BD41F480114FF0000E97
:10089000013C90E645EA060E8DE60CEA135594EA13
:1008A0000C0F08BF95EA0C0F3FF43BAF94EA0C0F16
:1008B0000AD150EA01347FF434AF95EA0C0F7FF48B
:1008C00025AF104619462CE795EA0C0F06D152EADF
:1008D00003353FF4FDAE1046194622E750EA4106C3
:1008E00018BF52EA43067FF4C5AE50EA41047FF4D4
:1008F0000DAF52EA43057FF4EBAE12E74FF0FF3C39
:1009000006E000BF4FF0010C02E000BF4FF0010C09
:100910004DF804CD4FEA410C7FEA6C5C4FEA430C82
:1009200018BF7FEA6C5C1BD001B050EA410C0CBFD1
:1009300052EA430C91EA030F02BF90EA020F002033
:10094000704710F1000F91EA030F58BF994208BF9A
:1009500090422CBFD8176FEAE37040F00100704757
:100960004FEA410C7FEA6C5C02D150EA013C07D1AE
:100970004FEA430C7FEA6C5CD6D152EA033CD3D0F9
:100980005DF8040B704700BF8446104662468C46F3
:100990001946634600E000BF01B5FFF7B7FF002826
:1009A00048BF10F1000F01BD4DF808EDFFF7F4FF4F
:1009B0000CBF012000205DF808FB00BF4DF808EDDA
:1009C000FFF7EAFF34BF012000205DF808FB00BFFD
:1009D0004DF808EDFFF7E0FF94BF012000205DF81F
:1009E00008FB00BF4DF808EDFFF7CEFF94BF0120D4
:1009F00000205DF808FB00BF4DF808EDFFF7C4FFCD
:100A000034BF012000205DF808FB00BF4FEA410C15
:100A10007FEA6C5C02D150EA013C0AD14FEA430CF8
:100A20007FEA6C5C02D152EA033C02D14FF0000035
:100A300070474FF0010070474FEA410212F5001273
:100A400015D211D56FF47873B3EB625212D94FEA15
:100A5000C12343F0004343EA505311F0004F23FAFF
:100A600002F018BF404270474FF00000704750EA54
:100A7000013005D111F0004008BF6FF00040704711
:100A80004FF00000704700BF4A0011D212F500126B
:100A900011D20DD56FF47873B3EB62520ED44FEAD6
:100AA000C12343F0004343EA505323FA02F0704756
:100AB0004FF00000704750EA013002D14FF0FF3094
:100AC00070474FF0000070474FEA4102B2F1E04337
:100AD00024BFB3F5001CDCF1FE5C0DD901F0004C25
:100AE0004FEAC0024CEA5070B2F1004F40EB830075
:100AF00008BF20F00100704711F0804F21D113F1A1
:100B00003872BCBF01F00040704741F480114FEAD9
:100B10005252C2F11802C2F1200C10FA0CF320FA62
:100B200002F018BF40F001004FEAC1234FEAD3237F
:100B300003FA0CFC40EA0C0023FA02F34FEA4303E9
:100B4000CCE77FEA625307D150EA01331EBF4FF072
:100B5000FE4040F44000704701F0004040F0FE408D
:100B600040F40000704700BF80F0004002E000BF8A
:100B700081F0004142001FBF5FEA410392EA030F88
:100B80007FEA226C7FEA236C6AD04FEA1262D2EBD2
:100B90001363C1BFD218414048404140B8BF5B42D7
:100BA000192B88BF704710F0004F40F4000020F070
:100BB0007F4018BF404211F0004F41F4000121F086
:100BC0007F4118BF494292EA030F3FD0A2F10102D0
:100BD00041FA03FC10EB0C00C3F1200301FA03F10E
:100BE00000F0004302D5494260EB4000B0F5000F31
:100BF00013D3B0F1807F06D340084FEA310102F1F0
:100C00000102FE2A51D2B1F1004F40EBC25008BFA1
:100C100020F0010040EA03007047490040EB00006B
:100C2000013A28BFB0F5000FEDD2B0FA80FCACF16C
:100C3000080CB2EB0C0200FA0CF0AABF00EBC25099
:100C400052421843BCBFD0401843704792F0000F87
:100C500081F4000106BF80F400000132013BB5E7DA
:100C60004FEA41037FEA226C18BF7FEA236C21D050
:100C700092EA030F04D092F0000F08BF08467047B5
:100C800090EA010F1CBF0020704712F07F4F04D183
:100C9000400028BF40F00040704712F100723CBF96
:100CA00000F50000704700F0004343F0FE4040F4C0
:100CB000000070477FEA226216BF08467FEA23637E
:100CC0000146420206BF5FEA412390EA010F40F469
:100CD000800070474FF0000304E000BF10F00043B5
:100CE00048BF40425FEA000C08BF704743F096439C
:100CF00001464FF000001CE050EA010208BF7047B7
:100D00004FF000030AE000BF50EA010208BF70473D
:100D100011F0004302D5404261EB41015FEA010C52
:100D200002BF84460146002043F0B64308BFA3F14A
:100D30008053A3F50003BCFA8CF2083AA3EBC2532C
:100D400010DB01FA02FC634400FA02FCC2F120024B
:100D5000BCF1004F20FA02F243EB020008BF20F082
:100D60000100704702F1200201FA02FCC2F12002E8
:100D700050EA4C0021FA02F243EB020008BF20EADD
:100D8000DC7070474FF0FF0C1CEAD0521EBF1CEA0B
:100D9000D15392EA0C0F93EA0C0F6FD01A4480EAF9
:100DA000010C400218BF5FEA41211ED04FF00063E2
:100DB00043EA501043EA5111A0FB01310CF000400E
:100DC000B1F5000F3EBF490041EAD3715B0040EA34
:100DD000010062F17F02FD2A1DD8B3F1004F40EB04
:100DE000C25008BF20F00100704790F0000F0CF0D7
:100DF000004C08BF49024CEA502040EA51207F3A9B
:100E0000C2BFD2F1FF0340EAC250704740F4000075
:100E10004FF00003013A5DDC12F1190FDCBF00F066
:100E200000407047C2F10002410021FA02F1C2F114
:100E3000200200FA02FC5FEA310040F1000053EAB0
:100E40004C0308BF20EADC70704792F0000F00F0FE
:100E5000004C02BF400010F4000F013AF9D040EA04
:100E60000C0093F0000F01F0004C02BF490011F498
:100E7000000F013BF9D041EA0C018FE70CEAD15396
:100E800092EA0C0F18BF93EA0C0F0AD030F0004C16
:100E900018BF31F0004CD8D180EA010000F00040CA
:100EA000704790F0000F17BF90F0004F084691F088
:100EB000000F91F0004F14D092EA0C0F01D14202C2
:100EC0000FD193EA0C0F03D14B0218BF084608D18B
:100ED00080EA010000F0004040F0FE4040F40000D5
:100EE000704740F0FE4040F4400070474FF0FF0C68
:100EF0001CEAD0521EBF1CEAD15392EA0C0F93EAAF
:100F00000C0F69D0A2EB030280EA010C49024FEA00
:100F1000402037D04FF0805343EA111143EA1013B9
:100F20000CF000408B4238BF5B0042F17D024FF471
:100F3000000C8B4224BF5B1A40EA0C00B3EB510F4C
:100F400024BFA3EB510340EA5C00B3EB910F24BF35
:100F5000A3EB910340EA9C00B3EBD10F24BFA3EBBA
:100F6000D10340EADC001B0118BF5FEA1C1CE0D182
:100F7000FD2A3FF650AF8B4240EBC25008BF20F035
:100F8000010070470CF0004C4CEA50207F32C2BF89
:100F9000D2F1FF0340EAC250704740F400004FF026
:100FA0000003013A37E792F0000F00F0004C02BF57
:100FB000400010F4000F013AF9D040EA0C0093F021
:100FC000000F01F0004C02BF490011F4000F013B7B
:100FD000F9D041EA0C0195E70CEAD15392EA0C0FE3
:100FE00008D142027FF47DAF93EA0C0F7FF470AF1B
:100FF000084676E793EA0C0F04D14B023FF44CAF5E
:1010000008466EE730F0004C18BF31F0004CCAD1F2
:1010100030F000427FF45CAF31F000437FF43CAF2E
:101020005FE700BF38B505460C460022002328467E
:101030002146FFF7C3FC28B928462146BDE83840C1
:1010400000F00AB8284604F1004100F005F84042DB
:1010500061EB410138BD00BFD0B500220B4B064605
:101060000F46FFF739FAFFF70FFD0446FFF7BAF90D
:101070000022074BFFF730FA02460B46304639464E
:10108000FFF772F8FFF700FD2146D0BD0000F03DEC
:101090000000F04180B582B000AF0346FB71002232
:1010A0004FF40061104801F037FF002202210E4882
:1010B00001F032FF0D4AFB79D36000BF0B4B9B68F8
:1010C00003F00203002BF9D000BF084B9B6803F02C
:1010D0008003002BF9D101220221034801F01CFFFB
:1010E00000BF0837BD4680BD000C01400030014004
:1010F00080B582B000AF0346FB7101224FF400615E
:10110000104801F009FF002202210E4801F004FFFF
:101110000D4AFB79D36000BF0B4B9B6803F00203C1
:10112000002BF9D000BF084B9B6803F08003002B15
:10113000F9D101220221034801F0EEFE00BF083779
:10114000BD4680BD000C01400030014090B583B029
:1011500000AF0446084611461A462346FB80034664
:10116000BB800B467B8013463B8000224FF400611E
:10117000644801F0D1FE00220221624801F0CCFE59
:10118000614B2A22DA6000BF5F4B9B6803F00203C9
:10119000002BF9D000BF5C4B9B6803F08003002B51
:1011A000F9D101224FF40061564801F0B5FEFB88E9
:1011B0001B0A9BB2DAB2544BDA6000BF524B9B68F9
:1011C00003F00203002BF9D0FB88DAB24E4BDA6051
:1011D00000BF4D4B9B6803F00203002BF9D07B88C6
:1011E0001B0A9BB2DAB2484BDA6000BF464B9B68E1
:1011F00003F00203002BF9D07B88DAB2424BDA60AD
:1012000000BF414B9B6803F00203002BF9D000BFE5
:101210003D4B9B6803F08003002BF9D100224FF473
:101220000061384801F078FE374B2B22DA6000BFAE
:10123000354B9B6803F00203002BF9D000BF324B03
:101240009B6803F08003002BF9D101224FF4006169
:101250002C4801F061FEBB881B0A9BB2DAB22A4B14
:10126000DA6000BF284B9B6803F00203002BF9D023
:10127000BB88DAB2244BDA6000BF234B9B6803F0D3
:101280000203002BF9D03B881B0A9BB2DAB21E4B3B
:10129000DA6000BF1C4B9B6803F00203002BF9D0FF
:1012A0003B88DAB2184BDA6000BF174B9B6803F03B
:1012B0000203002BF9D000BF134B9B6803F080039F
:1012C000002BF9D100224FF400610E4801F024FEFA
:1012D0000D4B2C22DA6000BF0B4B9B6803F002031E
:1012E000002BF9D000BF084B9B6803F08003002B54
:1012F000F9D101220221034801F00EFE00BF0C3794
:10130000BD4690BD000C01400030014080B500AFEB
:1013100000224FF480610B4801F0FEFDC82001F06F
:101320004DF800220221074801F0F6FDC82001F027
:1013300045F801224FF48061024801F0EDFD00BF45
:1013400080BD00BF000C014080B582B000AF0346F5
:10135000FB7100224FF400612E4801F0DDFD0022F8
:1013600002212C4801F0D8FD2B4B3622DA6000BF59
:10137000294B9B6803F00203002BF9D000BF264BDA
:101380009B6803F08003002BF9D101220221214840
:1013900001F0C2FDFB79032B36D801A252F823F0ED
:1013A000B1130008C7130008DD130008F313000889
:1013B0004820FFF79DFE194BF0221A80184B4FF47E
:1013C000A0721A8021E02820FFF792FE134B4FF401
:1013D000A0721A80124BF0221A8016E08820FFF7C4
:1013E00087FE0E4BF0221A800D4B4FF4A0721A802C
:1013F0000BE0E820FFF77CFE084B4FF4A0721A8048
:10140000074BF0221A8000E000BF00BF0837BD463E
:1014100080BD00BF000C01400030014002000020F0
:101420000000002080B500AF01224FF480618548A4
:1014300001F072FDFFF76AFF0120FFF72BFE4FF46A
:101440007A7000F0BBFFCB20FFF724FE3920FFF7B6
:101450004FFE2C20FFF74CFE0020FFF749FE342002
:10146000FFF746FE0220FFF743FECF20FFF712FEF4
:101470000020FFF73DFEC120FFF73AFE3020FFF7C6
:1014800037FEE820FFF706FE8520FFF731FE00203B
:10149000FFF72EFE7820FFF72BFEEA20FFF7FAFD7C
:1014A0000020FFF725FE0020FFF722FEED20FFF7CA
:1014B000F1FD6420FFF71CFE0320FFF719FE122048
:1014C000FFF716FE8120FFF713FEF720FFF7E2FD7E
:1014D0002020FFF70DFEC020FFF7DCFD2320FFF7E3
:1014E00007FEC120FFF7D6FD1020FFF701FEC52043
:1014F000FFF7D0FD3E20FFF7FBFD2820FFF7F8FDAA
:10150000C720FFF7C7FD8620FFF7F2FD3620FFF763
:10151000C1FD4820FFF7ECFD3A20FFF7BBFD552049
:10152000FFF7E6FDB120FFF7B5FD0020FFF7E0FD76
:101530001820FFF7DDFDB620FFF7ACFD0820FFF710
:10154000D7FD8220FFF7D4FD2720FFF7D1FDF22041
:10155000FFF7A0FD0020FFF7CBFD2620FFF79AFD47
:101560000120FFF7C5FDE020FFF794FD0F20FFF7F6
:10157000BFFD3120FFF7BCFD2B20FFF7B9FD0C208C
:10158000FFF7B6FD0E20FFF7B3FD0820FFF7B0FD13
:101590004E20FFF7ADFDF120FFF7AAFD3720FFF742
:1015A000A7FD0720FFF7A4FD1020FFF7A1FD0320F2
:1015B000FFF79EFD0E20FFF79BFD0920FFF798FD2A
:1015C0000020FFF795FDE120FFF764FD0020FFF705
:1015D0008FFD0E20FFF78CFD1420FFF789FD0320FF
:1015E000FFF786FD1120FFF783FD0720FFF780FD41
:1015F0003120FFF77DFDC120FFF77AFD4820FFF77E
:1016000077FD0820FFF774FD0F20FFF771FD0C2018
:10161000FFF76EFD3120FFF76BFD3620FFF768FD09
:101620000F20FFF765FD1120FFF734FD782000F053
:10163000C5FE2920FFF72EFD0320FFF785FE00BF22
:1016400080BD00BF000C014080B582B000AF0346F2
:101650003960FB8001224FF400611E4801F05CFC00
:10166000002202211B4801F057FC18E0FB881B0AEE
:101670009AB2194BDA6000BF174B9B6803F0020364
:10168000002BF9D0144AFB88D36000BF124B9B6833
:1016900003F00203002BF9D03B68013B3B603B6841
:1016A000002BE3D100BF0C4B9B6803F00203002B1F
:1016B000F9D000BF084B9B6803F08003002BF9D1E1
:1016C00001220221034801F027FC00BF0837BD4674
:1016D00080BD00BF000C01400030014080B582B0E9
:1016E00000AF0346FB800E4B1B889AB20D4B1B8844
:1016F0009BB200210020FFF729FD094B1B889BB2FC
:101700001A46084B1B889BB202FB03F31A46FB8860
:1017100011461846FFF798FF00BF0837BD4680BD49
:10172000020000200000002082B090B587B000AF1A
:10173000FB620346FB800B46BB801346FB7097F8A9
:101740002C309AB2FB8813449BB2013B9CB297F8B1
:101750002D309AB2BB8813449BB2013B9BB2B9882F
:10176000F8882246FFF7F2FC00237B613DE03A6BEC
:10177000FB78203B97F82D1001FB03F319467B699A
:101780000B445B0013441B88FB6000233B6123E098
:10179000FA683B6902FA03F303F40043002B0CD010
:1017A000BB8E1B0A9BB2DBB21846FFF7A1FCBB8EB7
:1017B000DBB21846FFF79CFC0BE03B8F1B0A9BB289
:1017C000DBB21846FFF794FC3B8FDBB21846FFF7FD
:1017D0008FFC3B6901333B6197F82C301A463B691B
:1017E0009342D5D37B6901337B6197F82D301A463C
:1017F0007B699342BBD300BF00BF1C37BD46BDE829
:10180000904002B0704782B080B586B004AF3A60B5
:101810007B610346FB800B46BB802EE0FB883A7D54
:101820001344B3F5A07F13DB0023FB807B7D9AB2CA
:10183000BB881344BB80BB887A7D1344EF2B21DC2B
:101840003B681B78202B03D13B6801333B6014E0DD
:101850003B681A78B988F8883B8C0293BB8B01935C
:10186000BB6900937B69FFF75FFF3B7D9AB2FB8802
:101870001344FB803B6801333B603B681B78002BC3
:10188000CCD100E000BF00BF0837BD46BDE88040B6
:1018900002B0704780B584B004AF00F05DFD00F089
:1018A00093F800F08BF900F0EBF800F027F900F066
:1018B0005BF9304800F07EFE2F4B1B681A682E4BF8
:1018C0001B6842F040021A60FFF7ACFD0320FFF7EF
:1018D0003BFD42F66510FFF701FF284B42F665120B
:1018E00002924FF6FF7201925A6800921B68244AD6
:1018F00000210020FFF787FF4FF47A7000F05EFDB3
:1019000042F66510FFF7EAFE02F0CCFC1D4A80218A
:101910000A2002F005FE03461B4A13601B4A002101
:101920001B4802F025FD03461A4A13601A4A00219B
:101930001A4802F01DFD0346194A1360194A002196
:10194000194802F015FD0346184A1360184A002191
:10195000184802F00DFD0346174A1360174A00218C
:10196000174802F005FD0346164A136002F0CCFC4E
:10197000FEE700BF0C0200203C0200200400002013
:10198000D0B9000848C80008BC0E002094C7000861
:101990007D1C0008DC020020B8C700088D1C000870
:1019A0003C050020DCC70008A91C00089C0700209B
:1019B00000C80008F11C0008FC09002024C8000829
:1019C0003D1D00085C0C002080B594B000AF07F10D
:1019D000280328220021184605F0A0FB07F1140374
:1019E00000221A605A609A60DA601A613B1D002278
:1019F0001A605A609A60DA600123BB624FF4803348
:101A0000FB6200233B630123BB6302237B644FF42F
:101A10008033BB644FF4E013FB6407F128031846DE
:101A200001F0ACFA0346002B01D000F0FBF90F23C4
:101A30007B610223BB610023FB614FF480633B6247
:101A400000237B6207F114030221184601F018FD00
:101A50000346002B01D000F0E5F902237B604FF430
:101A60000043FB603B1D184601F0C8FE0346002BF7
:101A700001D000F0D7F900BF5037BD4680BD00004F
:101A800080B584B000AF3B1D00221A605A609A6096
:101A9000184B194A1A60174B00229A60154B012205
:101AA0001A73144B00221A75124B4FF46022DA613C
:101AB000104B00225A600F4B01221A610D4800F0B2
:101AC000A1FC0346002B01D000F0ACF901237B60A0
:101AD0000123BB600023FB603B1D1946054800F055
:101AE00023FE0346002B01D000F09CF900BF103705
:101AF000BD4680BD0C0200200024014080B500AF2F
:101B0000174B184A1A60164B4FF482725A60144BE6
:101B100000229A60124B0022DA60114B00221A61F7
:101B20000F4B00225A610E4B4FF400729A610C4B1E
:101B30000822DA610A4B00221A62094B00225A621B
:101B4000074B00229A62064B0A22DA62044801F02F
:101B50000BFF0346002B01D000F064F900BF80BDED
:101B60003C0200200030014080B500AF114B124A0A
:101B70001A60104B4FF4E1325A600E4B00229A600B
:101B80000C4B0022DA600B4B00221A61094B0C222D
:101B90005A61084B00229A61064B0022DA6105481F
:101BA00002F0B0F90346002B01D000F03BF900BF72
:101BB00080BD00BF940200200038014080B588B08D
:101BC00000AF07F1100300221A605A609A60DA60D1
:101BD000274B9B69264A43F020039361244B9B6962
:101BE00003F02003FB60FB68214B9B69204A43F014
:101BF000040393611E4B9B6903F00403BB60BB6845
:101C00001B4B9B691A4A43F008039361184B9B696D
:101C100003F008037B607B6800221021154801F067
:101C20007BF9002240F60341134801F075F91023B7
:101C30003B6101237B610023BB610223FB6107F150
:101C4000100319460B4800F0E3FF40F603433B61E5
:101C500001237B610023BB610223FB6107F11003B9
:101C60001946054800F0D4FF00BF2037BD4680BDAF
:101C70000010024000080140000C014080B582B015
:101C800000AF7860012002F01DFCFBE780B582B058
:101C900000AF78601021034801F056F9012002F0EE
:101CA00011FCF7E700080140B0B5A2B000AF7860C2
:101CB00007F108030C4A1C4615460FCD0FC495E8E2
:101CC0000F0007C4238002341B0C2370074B1868D5
:101CD00007F108014FF0FF33002202F0A7FC0120BA
:101CE00002F0F0FBE4E700BFDCB90008BC0E002006
:101CF00090B5A3B000AF78600E4B186807F10801EB
:101D00004FF0FF33002202F005FD07F10803DBB2BC
:101D10001C4607F108031846FEF71AFA03469AB262
:101D20004FF0FF332146044802F03CF9012002F055
:101D3000C9FBE1E7BC0E00209402002080B5C0B0D2
:101D400004AF78604FF00003C7F8EC30254B42F643
:101D5000651202924FF6FF7201925A6800921B6858
:101D6000214A00210020FFF74EFD204800F0D0FC62
:101D700003461846FEF7AEFF03461D491846FFF717
:101D800001F803461B491846FFF7B0F80346C7F8A9
:101D9000EC30D7F8EC00FEF747FB02460B4607F1A4
:101DA0000800154906F034F8144B186807F16C0167
:101DB0004FF0FF33002202F0ADFC0A4B07F108019F
:101DC00042F6651202924FF6FF7201925A68009233
:101DD0001B680A4600211220FFF715FD012002F0C2
:101DE00071FBB3E704000020FCB900080C020020DE
:101DF0003333534000F07F4518BA0008BC0E002072
:101E000080B582B000AF78607B681B68044A93425B
:101E100001D100F0B7FA00BF0837BD4680BD00BF52
:101E20000008004080B400AF72B600BFFEE70000BB
:101E300080B584B000AF184B9B69174A43F001038B
:101E40009361154B9B6903F00103BB60BB68124BA8
:101E5000DB69114A43F08053D3610F4BDB6903F018
:101E600080537B607B6800220F216FF0010000F03F
:101E7000A4FE0A4B5B68FB60FB6823F0E063FB6039
:101E8000FB6843F00073FB60044AFB68536000BFCB
:101E90001037BD4680BD00BF001002400000014069
:101EA00080B588B000AF786007F1100300221A6097
:101EB0005A609A60DA607B681B68144A934221D1A9
:101EC000134B9B69124A43F400739361104B9B6957
:101ED00003F40073FB60FB680D4B9B690C4A43F0F5
:101EE000040393610A4B9B6903F00403BB60BB6866
:101EF00002233B6103237B6107F110031946054868
:101F000000F086FE00BF2037BD4680BD00240140A2
:101F1000001002400008014080B588B000AF786032
:101F200007F1100300221A605A609A60DA607B6839
:101F30001B681B4A93422FD11A4B9B69194A43F4E1
:101F400080539361174B9B6903F48053FB60FB68DC
:101F5000144B9B69134A43F004039361114B9B6933
:101F600003F00403BB60BB68A0233B6102237B61D9
:101F70000323FB6107F1100319460B4800F048FEEC
:101F800040233B6100237B610023BB6107F1100309
:101F90001946054800F03CFE00BF2037BD4680BD15
:101FA00000300140001002400008014080B588B0B8
:101FB00000AF786007F1100300221A605A609A603F
:101FC000DA607B681B681C4A934231D11B4B9B69CA
:101FD0001A4A43F480439361184B9B6903F480438E
:101FE000FB60FB68154B9B69144A43F00403936143
:101FF000124B9B6903F00403BB60BB684FF4007392
:102000003B6102237B610323FB6107F11003194647
:102010000B4800F0FDFD4FF480633B6100237B61C2
:102020000023BB6107F110031946054800F0F0FDDD
:1020300000BF2037BD4680BD00380140001002407F
:102040000008014080B58EB000AF78600023FB62CD
:102050000023BB62002387F83330344BDB69334AFB
:1020600043F00403D361314BDB6903F00403FB60ED
:10207000FB6807F1100207F114031146184601F03E
:102080006FFB3B6AFB62FB6A002B03D101F040FB54
:10209000786304E001F03CFB03465B007B637B6BF1
:1020A000234AA2FB03239B0C013BBB62214B224A28
:1020B0001A60204B40F2E732DA601E4ABB6A536076
:1020C0001C4B00221A611B4B00229A60194B002204
:1020D0009A61184801F0CCFC034687F8333097F832
:1020E0003330002B1BD1134801F01AFD034687F84B
:1020F000333097F83330002B11D11E2000F079FDDA
:102100007B680F2B08D8002279681E2000F055FD4F
:102110000A4A7B68136002E0012387F8333097F89E
:10212000333018463837BD4680BD00BF001002402E
:1021300083DE1B4310140020000800401000002024
:1021400080B400AFFEE780B400AFFEE780B400AF1C
:10215000FEE780B400AFFEE780B400AFFEE780B4D6
:1021600000AF00BFBD4680BC7047000080B500AF27
:10217000024801F027FD00BF80BD00BF1014002001
:1021800080B400AF01231846BD4680BC704780B5BF
:1021900082B000AF7860396004F088FF03461622F1
:1021A0001A604FF0FF3318460837BD4680BD80B532
:1021B00082B000AF78604FF0FF317868FFF7E7FF3B
:1021C000FEE780B586B000AFF860B9607A600023A2
:1021D0007B610AE0AFF300800146BB685A1CBA601D
:1021E000CAB21A707B6901337B617A697B689A4253
:1021F000F0DB7B6818461837BD4680BD80B586B0D9
:1022000000AFF860B9607A6000237B6109E0BB68C9
:102210005A1CBA601B781846AFF300807B69013303
:102220007B617A697B689A42F1DB7B6818461837D4
:10223000BD4680BD80B483B000AF78604FF0FF33FF
:1022400018460C37BD4680BC704780B483B000AFE1
:10225000786039603B684FF400525A60002318469A
:102260000C37BD4680BC704780B483B000AF786047
:10227000012318460C37BD4680BC704780B485B03A
:1022800000AFF860B9607A60002318461437BD4685
:1022900080BC704780B586B000AF7860144A154B9B
:1022A000D31A7B617B693B61134B1B68002B02D106
:1022B000114B124A1A60104B1A687B6813443A6932
:1022C0009A4207D204F0F2FE03460C221A604FF045
:1022D000FF3309E0084B1B68FB60074B1A687B68FB
:1022E0001344054A1360FB6818461837BD4680BD85
:1022F000005000200004000058140020B82D0020D9
:1023000080B400AF00BFBD4680BC7047FFF7F8FF48
:102310000B480C490C4A002302E0D458C450043343
:10232000C4188C42F9D3094A094C002301E0136018
:102330000432A242FBD304F0BFFEFFF7ABFA7047B2
:1023400000000020F00100203CCD0008F00100203A
:10235000B82D0020FEE7000080B500AF084B1B68D9
:10236000074A43F010031360032000F01BFC0F200A
:10237000FFF768FEFFF75CFD0023184680BD00BF35
:102380000020024080B400AF054B1B781A46054B75
:102390001B681344034A136000BFBD4680BC7047EE
:1023A000140000205C14002080B400AF024B1B68B6
:1023B0001846BD4680BC70475C14002080B584B0D0
:1023C00000AF7860FFF7F0FFB8607B68FB60FB68E8
:1023D000B3F1FF3F05D00A4B1B781A46FB68134444
:1023E000FB6000BFFFF7E0FF0246BB68D31AFA6844
:1023F0009A42F7D800BF00BF1037BD4680BD00BF6E
:102400001400002080B586B000AF78600023FB7513
:1024100000233B610023BB600023FB607B68002B33
:1024200001D10123BEE07B689B68002B7B689B6A1F
:10243000002B09D17B680022DA627B68002283F8D6
:1024400024207868FFF72CFD786800F0BFFA034677
:10245000FB757B689B6A03F01003002B40F09980AA
:10246000FB7D002B40F095807B689B6A23F48853AA
:1024700023F0020343F002027B689A627B685A6889
:102480007B68DB691A437B681B7B5B001343BA687C
:102490001343BB607B689B68B3F5807F03D07B6888
:1024A0009B68012B02D14FF4807300E000233A694E
:1024B00013433B617B681B7D012B19D17B681B7B20
:1024C000002B09D17B689B69013B5A033B6913438D
:1024D00043F400633B610BE07B689B6A43F020029E
:1024E0007B689A627B68DB6A43F001027B68DA6290
:1024F0007B681B685B6823F469417B681B683A69E9
:102500000A435A607B681B689A68284B13407A68B4
:102510001268B9680B4393607B689B68B3F5807F52
:1025200003D07B689B68012B04D17B681B69013B4E
:102530001B05FB607B681B68DB6A23F470017B680A
:102540001B68FA680A43DA627B681B689A68184B52
:102550001340BA689A420BD17B680022DA627B682A
:102560009B6A23F0030343F001027B689A6218E040
:102570007B689B6A23F0120343F010027B689A6227
:102580007B68DB6A43F001027B68DA620123FB753A
:1025900007E07B689B6A43F010027B689A62012324
:1025A000FB75FB7D18461837BD4680BDFDF7E1FF82
:1025B000FE0E1FFF80B584B000AF78600023FB7370
:1025C0007B6893F82430012B01D1022398E07B68CB
:1025D000012283F82420786800F09EF90346FB73FB
:1025E000FB7B002B40F087807B689B6A23F4407361
:1025F00023F0010343F480727B689A627B681B6856
:10260000414A934205D1414B5B6803F47023002B90
:1026100015D17B689B6A23F480127B689A627B6881
:102620001B685B6803F48063002B26D07B689B6A81
:1026300023F4405343F480527B689A621DE07B6828
:102640009B6A43F480127B689A627B681B682F4AFE
:10265000934204D07B681B682B4A93420DD12B4BCD
:102660005B6803F48063002B07D07B689B6A23F4CC
:10267000405343F480527B689A627B689B6A03F400
:102680008053002B06D07B68DB6A23F006027B6850
:10269000DA6202E07B680022DA627B68002283F85B
:1026A00024207B681B686FF002021A607B681B683D
:1026B0009B6803F46023B3F5602F13D17B681B681C
:1026C000114A934205D1114B5B6803F47023002B30
:1026D00008D17B681B689A687B681B6842F4A0027B
:1026E0009A600CE07B681B689A687B681B6842F400
:1026F00080129A6003E07B68002283F82420FB7B31
:1027000018461037BD4680BD002801400024014016
:1027100080B483B000AF78607B681B68DB6C1846C0
:102720000C37BD4680BC704780B485B000AF786080
:1027300039600023FB730023BB607B6893F824306F
:10274000012B01D10223DCE07B68012283F82420E5
:102750003B685B68062B1CD87B681B68596B3B6821
:102760005A6813469B001344053B1F2202FA03F3E9
:10277000DB4319403B6818683B685A6813469B0066
:102780001344053B00FA03F27B681B680A435A6353
:102790003CE03B685B680C2B1CD87B681B68196BA2
:1027A0003B685A6813469B001344233B1F2202FADE
:1027B00003F3DB4319403B6818683B685A681346CB
:1027C0009B001344233B00FA03F27B681B680A4317
:1027D0001A631BE07B681B68D96A3B685A6813461A
:1027E0009B001344413B1F2202FA03F3DB431940D1
:1027F0003B6818683B685A6813469B001344413B8A
:1028000000FA03F27B681B680A43DA623B681B68C4
:10281000092B1CD97B681B68D9683B681A6813466A
:102820005B0013441E3B072202FA03F3DB4319400B
:102830003B6898683B681A6813465B0013441E3B6C
:1028400000FA03F27B681B680A43DA6019E07B68D0
:102850001B6819693B681A6813465B00134407221A
:1028600002FA03F3DB4319403B6898683B681A6837
:1028700013465B00134400FA03F27B681B680A43AB
:102880001A613B681B68102B03D03B681B68112B37
:1028900032D17B681B681D4A934225D17B681B6837
:1028A0009B6803F40003002B26D17B681B689A68A1
:1028B0007B681B6842F400029A603B681B68102B1F
:1028C0001AD1134B1B68134AA2FB03239A0C13461D
:1028D0009B0013445B00BB6002E0BB68013BBB6034
:1028E000BB68002BF9D107E07B689B6A43F02002AC
:1028F0007B689A620123FB737B68002283F82420A3
:10290000FB7B18461437BD4680BC7047002401404D
:102910000C00002083DE1B4380B584B000AF7860DC
:102920000023FB600023BB607B681B689B6803F08F
:102930000103012B40D07B681B689A687B681B6889
:1029400042F001029A601F4B1B681F4AA2FB03233F
:102950009B0CBB6002E0BB68013BBB60BB68002B0B
:10296000F9D1FFF721FDF8601FE0FFF71DFD0246DA
:10297000FB68D31A022B18D97B681B689B6803F08D
:102980000103012B11D07B689B6A43F010027B6826
:102990009A627B68DB6A43F001027B68DA627B68DB
:1029A000002283F82420012307E07B681B689B68D2
:1029B00003F00103012BD8D1002318461037BD4680
:1029C00080BD00BF0C00002083DE1B4380B584B0B7
:1029D00000AF78600023FB607B681B689B6803F096
:1029E0000103012B2ED17B681B689A687B681B68EA
:1029F00022F001029A60FFF7D7FCF8601BE0FFF7B6
:102A0000D3FC0246FB68D31A022B14D97B681B68DF
:102A10009B6803F00103012B0DD17B689B6A43F097
:102A200010027B689A627B68DB6A43F001027B6874
:102A3000DA62012307E07B681B689B6803F00103EF
:102A4000012BDCD0002318461037BD4680BD0000A6
:102A500080B485B000AF78607B6803F00703FB604B
:102A60000C4BDB68BB60BA684FF6FF031340BB60DA
:102A7000FB681A02BB68134343F0BF6343F400339F
:102A8000BB60044ABB68D36000BF1437BD4680BC3E
:102A9000704700BF00ED00E080B400AF044BDB687E
:102AA0001B0A03F007031846BD4680BC704700BFF1
:102AB00000ED00E080B483B000AF0346FB7197F9EE
:102AC0000730002B0BDBFB7903F01F02064997F957
:102AD00007305B09012000FA02F241F8232000BF11
:102AE0000C37BD4680BC704700E100E080B483B085
:102AF00000AF03463960FB7197F90730002B0ADB02
:102B00003B68DAB20C4997F907301201D2B20B4494
:102B100083F800230AE03B68DAB20849FB7903F046
:102B20000F03043B1201D2B20B441A7600BF0C37DC
:102B3000BD4680BC704700BF00E100E000ED00E052
:102B400080B489B000AFF860B9607A60FB6803F0C8
:102B50000703FB61FB69C3F10703042B28BF0423B0
:102B6000BB61FB690433062B02D9FB69033B00E020
:102B700000237B614FF0FF32BB6902FA03F3DA43B3
:102B8000BB681A407B699A404FF0FF317B6901FABC
:102B900003F3D9437B680B40134318462437BD46E3
:102BA00080BC704780B582B000AF78607868FFF76E
:102BB0004FFF00BF0837BD4680BD80B586B000AF6F
:102BC0000346B9607A60FB7300237B61FFF764FF03
:102BD00078617A68B9687869FFF7B2FF024697F9B9
:102BE0000F3011461846FFF781FF00BF1837BD466A
:102BF00080BD80B582B000AF0346FB7197F9073006
:102C00001846FFF757FF00BF0837BD4680BD0000DC
:102C100080B48BB000AF7860396000237B62002302
:102C20003B6269E101227B6A02FA03F3FB613B68C4
:102C30001B68FA691340BB61BA69FB699A4240F0AC
:102C400058813B685B689A4A93425ED0984A9342A7
:102C500075D8984A934258D0964A93426FD8964A6C
:102C6000934252D0944A934269D8944A93424CD0AA
:102C7000924A934263D8924A934246D0904A9342F2
:102C80005DD8122B2AD8122B59D801A252F823F062
:102C90000B2D0008E52C0008F72C0008392D000842
:102CA0003F2D00083F2D00083F2D00083F2D000854
:102CB0003F2D00083F2D00083F2D00083F2D000844
:102CC0003F2D00083F2D00083F2D00083F2D000834
:102CD0003F2D0008ED2C0008012D0008794A934291
:102CE00013D02CE03B68DB683B6229E03B68DB6883
:102CF00004333B6224E03B68DB6808333B621FE03F
:102D00003B68DB680C333B621AE03B689B68002B36
:102D100002D104233B6213E03B689B68012B05D181
:102D200008233B627B68FA691A6109E008233B6269
:102D30007B68FA695A6103E000233B6200E000BF50
:102D4000BB69FF2B01D87B6801E07B6804337B61A2
:102D5000BB69FF2B02D87B6A9B0002E07B6A083BC1
:102D60009B003B617B691A680F213B6901FA03F301
:102D7000DB431A40396A3B6901FA03F31A437B6962
:102D80001A603B685B6803F08053002B00F0B18051
:102D90004D4B9B694C4A43F0010393614A4B9B693D
:102DA00003F00103BB60BB68484A7B6A9B0802339F
:102DB00052F82330FB607B6A03F003039B000F2271
:102DC00002FA03F3DB43FA681340FB607B68404A76
:102DD000934213D07B683F4A93420DD07B683E4AB2
:102DE000934207D07B683D4A934201D1032306E01A
:102DF000042304E0022302E0012300E000237A6AB6
:102E000002F0030292009340FA681343FB602F49DB
:102E10007B6A9B080233FA6841F823203B685B68B1
:102E200003F48013002B06D02D4B9A682C49BB6904
:102E300013438B6006E02A4B9A68BB69DB43284941
:102E400013408B603B685B6803F40013002B06D0D3
:102E5000234BDA682249BB691343CB6006E0204B61
:102E6000DA68BB69DB431E491340CB603B685B6893
:102E700003F40033002B06D0194B5A681849BB697C
:102E800013434B6006E0164B5A68BB69DB43144999
:102E900013404B603B685B6803F48033002B21D008
:102EA0000F4B1A680E49BB6913430B6021E000BF4A
:102EB000000032100000311000002210000021102C
:102EC000000012100000111000100240000001402C
:102ED00000080140000C01400010014000140140B6
:102EE000000401400B4B1A68BB69DB4309491340DE
:102EF0000B607B6A01337B623B681A687B6A22FA4B
:102F000003F3002B7FF48EAE00BF00BF2C37BD460D
:102F100080BC70470004014080B483B000AF78608B
:102F20000B467B8013467B707B78002B03D07A881E
:102F30007B681A6103E07B881A047B681A6100BF12
:102F40000C37BD4680BC704780B485B000AF786058
:102F50000B467B807B68DB68FB607A88FB681340EC
:102F60001A04FB68D9437B880B401A437B681A61BB
:102F700000BF1437BD4680BC7047000080B586B0E6
:102F800000AF78607B68002B01D1012372E27B687F
:102F90001B6803F00103002B00F08780924B5B68F5
:102FA00003F00C03042B0CD08F4B5B6803F00C0375
:102FB000082B12D18C4B5B6803F48033B3F5803F50
:102FC0000BD1894B1B6803F40033002B6CD07B685A
:102FD0005B68002B68D101234CE27B685B68B3F52A
:102FE000803F06D1804B1B687F4A43F480331360D7
:102FF0002EE07B685B68002B0CD17B4B1B687A4A08
:1030000023F480331360784B1B68774A23F48023C2
:1030100013601DE07B685B68B3F5A02F0CD1724B89
:103020001B68714A43F4802313606F4B1B686E4A20
:1030300043F4803313600BE06B4B1B686A4A23F444
:1030400080331360684B1B68674A23F48023136046
:103050007B685B68002B13D0FFF7A6F9386108E0A6
:10306000FFF7A2F902463B69D31A642B01D9032367
:1030700000E25D4B1B6803F40033002BF0D014E03A
:10308000FFF792F9386108E0FFF78EF902463B69D5
:10309000D31A642B01D90323ECE1534B1B6803F4CF
:1030A0000033002BF0D100E000BF7B681B6803F009
:1030B0000203002B63D04C4B5B6803F00C03002B26
:1030C0000BD0494B5B6803F00C03082B1CD1464B1B
:1030D0005B6803F48033002B16D1434B1B6803F06D
:1030E0000203002B05D07B681B69012B01D0012353
:1030F000C0E13D4B1B6823F0F8027B685B69DB0095
:10310000394913430B603AE07B681B69002B20D0E0
:10311000364B01221A60FFF747F9386108E0FFF7E4
:1031200043F902463B69D31A022B01D90323A1E1DB
:103130002D4B1B6803F00203002BF0D02A4B1B68B9
:1031400023F0F8027B685B69DB00274913430B60BF
:1031500015E0264B00221A60FFF726F9386108E0D7
:10316000FFF722F902463B69D31A022B01D9032348
:1031700080E11D4B1B6803F00203002BF0D17B683C
:103180001B6803F00803002B3AD07B689B69002B77
:1031900019D0174B01221A60FFF706F9386108E0D1
:1031A000FFF702F902463B69D31A022B01D9032328
:1031B00060E10D4B5B6A03F00203002BF0D00120AD
:1031C00000F0FEFA1CE00A4B00221A60FFF7ECF850
:1031D00038610FE0FFF7E8F802463B69D31A022B8B
:1031E00008D9032346E100BF00100240000042421C
:1031F00080044242924B5B6A03F00203002BE9D148
:103200007B681B6803F00403002B00F0A6800023FA
:10321000FB758B4BDB6903F08053002B0DD1884B82
:10322000DB69874A43F08053D361854BDB6903F048
:103230008053BB60BB680123FB75824B1B6803F4A2
:103240008073002B18D17F4B1B687E4A43F4807338
:103250001360FFF7A9F8386108E0FFF7A5F8024608
:103260003B69D31A642B01D9032303E1754B1B6817
:1032700003F48073002BF0D07B68DB68012B06D150
:103280006F4B1B6A6E4A43F0010313622DE07B68AB
:10329000DB68002B0CD16A4B1B6A694A23F00103DF
:1032A0001362674B1B6A664A23F0040313621CE037
:1032B0007B68DB68052B0CD1614B1B6A604A43F0CD
:1032C000040313625E4B1B6A5D4A43F00103136201
:1032D0000BE05B4B1B6A5A4A23F001031362584B05
:1032E0001B6A574A23F0040313627B68DB68002BD8
:1032F00015D0FFF759F838610AE0FFF755F8024694
:103300003B69D31A41F28832934201D90323B1E0D9
:103310004B4B1B6A03F00203002BEED014E0FFF7C7
:1033200043F838610AE0FFF73FF802463B69D31AD9
:1033300041F28832934201D903239BE0404B1B6A40
:1033400003F00203002BEED1FB7D012B05D13C4B9A
:10335000DB693B4A23F08053D3617B68DB69002B38
:1033600000F08780364B5B6803F00C03082B61D0BC
:103370007B68DB69022B46D1334B00221A60FFF7D2
:1033800013F8386108E0FFF70FF802463B69D31ADB
:10339000022B01D903236DE0294B1B6803F0007356
:1033A000002BF0D17B681B6AB3F5803F08D1244B1A
:1033B0005B6823F400327B689B68214913434B60B0
:1033C0001F4B5B6823F474127B68196A7B685B6A25
:1033D0000B431B4913434B601B4B01221A60FEF742
:1033E000E3FF386108E0FEF7DFFF02463B69D31ACE
:1033F000022B01D903233DE0114B1B6803F000733E
:10340000002BF0D035E0104B00221A60FEF7CCFF05
:10341000386108E0FEF7C8FF02463B69D31A022B69
:1034200001D9032326E0064B1B6803F00073002B31
:10343000F0D11EE07B68DB69012B07D1012319E085
:103440000010024000700040600042420B4B5B687D
:10345000FB60FB6803F480327B681B6A9A4206D1EA
:10346000FB6803F470127B685B6A9A4201D0012307
:1034700000E0002318461837BD4680BD001002400A
:1034800080B584B000AF786039607B68002B01D1D3
:103490000123D0E06A4B1B6803F007033A689A42A5
:1034A00010D9674B1B6823F0070265493B6813433B
:1034B0000B60634B1B6803F007033A689A4201D024
:1034C0000123B8E07B681B6803F00203002B20D0C7
:1034D0007B681B6803F00403002B05D0594B5B6825
:1034E000584A43F4E06353607B681B6803F00803A9
:1034F000002B05D0534B5B68524A43F46053536032
:10350000504B5B6823F0F0027B689B684D49134386
:103510004B607B681B6803F00103002B40D07B6885
:103520005B68012B07D1474B1B6803F40033002B6A
:1035300015D101237FE07B685B68022B07D1414BEB
:103540001B6803F00073002B09D1012373E03D4B8E
:103550001B6803F00203002B01D101236BE0394B00
:103560005B6823F003027B685B68364913434B605A
:10357000FEF71AFFF8600AE0FEF716FF0246FB6846
:10358000D31A41F28832934201D9032353E02D4BE1
:103590005B6803F00C027B685B689B009A42EBD18E
:1035A000274B1B6803F007033A689A4210D2244B5A
:1035B0001B6823F0070222493B6813430B60204B32
:1035C0001B6803F007033A689A4201D0012332E0F6
:1035D0007B681B6803F00403002B08D0194B5B6861
:1035E00023F4E0627B68DB68164913434B607B6819
:1035F0001B6803F00803002B09D0124B5B6823F40F
:1036000060527B681B69DB000E4913434B6000F07E
:1036100021F802460B4B5B681B0903F00F030A49B4
:10362000CB5C22FA03F3094A1360094B1B68184666
:10363000FEF708FD002318461037BD4680BD00BFC9
:10364000002002400010024060C800080C0000206A
:103650001000002080B487B000AF0023FB6000237F
:10366000BB6000237B6100237B6000233B611E4B1A
:103670005B68FB60FB6803F00C03042B02D0082B93
:1036800003D027E0194B3B6127E0FB689B0C03F05C
:103690000F03174AD35C7B60FB6803F48033002B75
:1036A00010D0114B5B685B0C03F00103114AD35C33
:1036B000BB607B680D4A03FB02F2BB68B2FBF3F30D
:1036C0007B6104E07B680C4A02FB03F37B617B694E
:1036D0003B6102E0054B3B6100BF3B6918461C376C
:1036E000BD4680BC704700BF0010024000127A0047
:1036F00078C8000888C8000800093D0080B400AF01
:10370000024B1B681846BD4680BC70470C00002069
:1037100080B500AFFFF7F2FF0246054B5B681B0A5E
:1037200003F007030349CB5C22FA03F3184680BD7C
:103730000010024070C8000880B500AFFFF7DEFF40
:103740000246054B5B68DB0A03F007030349CB5CC9
:1037500022FA03F3184680BD0010024070C800082A
:1037600080B483B000AF786039607B680F221A6044
:10377000114B5B6803F003027B685A600E4B5B6879
:1037800003F0F0027B689A600B4B5B6803F4E06225
:103790007B68DA60084B5B68DB0803F4E0627B68F7
:1037A0001A61064B1B6803F007023B681A6000BFF2
:1037B0000C37BD4680BC704700100240002002401C
:1037C00080B485B000AF78600A4B1B680A4AA2FB40
:1037D00003235B0A7A6802FB03F3FB6000BFFB680C
:1037E0005A1EFA60002BF9D100BF00BF1437BD4646
:1037F00080BC70470C000020D34D621080B586B0AD
:1038000000AF786000233B610023FB607B681B688E
:1038100003F00103002B7DD00023FB754F4BDB69C8
:1038200003F08053002B0DD14C4BDB694B4A43F026
:103830008053D361494BDB6903F08053BB60BB68A5
:103840000123FB75464B1B6803F48073002B18D1D2
:10385000434B1B68424A43F480731360FEF7A4FD98
:10386000386108E0FEF7A0FD02463B69D31A642BDD
:1038700001D903236DE03A4B1B6803F48073002BDE
:10388000F0D0364B1B6A03F44073FB60FB68002BDF
:103890002ED07B685B6803F44073FA689A4227D0A5
:1038A0002E4B1B6A23F44073FB602E4B01221A60DF
:1038B0002C4B00221A60294AFB681362FB6803F054
:1038C0000103002B14D0FEF76FFD38610AE0FEF70C
:1038D0006BFD02463B69D31A41F28832934201D90B
:1038E000032336E01D4B1B6A03F00203002BEED0CE
:1038F0001A4B1B6A23F440727B685B6817491343B9
:103900000B62FB7D012B05D1144BDB69134A23F0BD
:103910008053D3617B681B6803F00203002B08D03F
:103920000E4B5B6823F440427B689B680B49134352
:103930004B607B681B6803F01003002B08D0074B1B
:103940005B6823F480027B68DB68044913434B60A7
:10395000002318461837BD4680BD00BF0010024046
:10396000007000404004424280B582B000AF7860F1
:103970007B68002B01D1012376E07B685B6A002B1A
:1039800008D17B685B68B3F5827F09D07B68002231
:10399000DA6105E07B6800221A617B6800225A61C7
:1039A0007B6800229A627B6893F85130DBB2002B6F
:1039B00006D17B68002283F850207868FEF7ACFAC5
:1039C0007B68022283F851207B681B681A687B6839
:1039D0001B6822F040021A607B685B6803F4827205
:1039E0007B689B6803F404431A437B68DB6803F439
:1039F00000631A437B681B6903F002031A437B6868
:103A00005B6903F001031A437B689B6903F400734D
:103A10001A437B68DB6903F038031A437B681B6A2F
:103A200003F0800342EA03017B689B6A03F40052BF
:103A30007B681B680A431A607B689B691A0C7B6869
:103A40001B6802F004025A607B681B68DA697B68B5
:103A50001B6822F40062DA617B6800225A657B6889
:103A6000012283F85120002318460837BD4680BD47
:103A700080B582B000AF78607B68002B01D1012354
:103A800041E07B6893F83D30DBB2002B06D17B68C8
:103A9000002283F83C20786800F039F87B68022225
:103AA00083F83D207B681A687B680433194610460A
:103AB00000F0B4F97B68012283F846207B6801227C
:103AC00083F83E207B68012283F83F207B68012237
:103AD00083F840207B68012283F841207B68012223
:103AE00083F842207B68012283F843207B6801220F
:103AF00083F844207B68012283F845207B680122FB
:103B000083F83D20002318460837BD4680BD80B4A9
:103B100083B000AF786000BF0C37BD4680BC7047F3
:103B200080B485B000AF78607B6893F83D30DBB23D
:103B3000012B01D001233AE07B68022283F83D206B
:103B40007B681B68DA687B681B6842F00102DA60F8
:103B50007B681B68184A93420ED07B681B68B3F1E0
:103B6000804F09D07B681B68144A934204D07B685D
:103B70001B68134A934211D17B681B689B6803F052
:103B80000703FB60FB68062B10D07B681B681A6874
:103B90007B681B6842F001021A6007E07B681B68C3
:103BA0001A687B681B6842F001021A6000231846FD
:103BB0001437BD4680BC7047002C01400004004013
:103BC0000008004080B582B000AF78607B681B6859
:103BD0001B6903F00203022B22D17B681B68DB68A0
:103BE00003F00203022B1BD17B681B686FF00202FB
:103BF0001A617B6801221A777B681B689B6903F056
:103C00000303002B03D0786800F0EDF805E0786836
:103C100000F0E0F8786800F0EFF87B6800221A778F
:103C20007B681B681B6903F00403042B22D17B68AB
:103C30001B68DB6803F00403042B1BD17B681B6843
:103C40006FF004021A617B6802221A777B681B6896
:103C50009B6903F44073002B03D0786800F0C3F82D
:103C600005E0786800F0B6F8786800F0C5F87B6881
:103C700000221A777B681B681B6903F00803082B76
:103C800022D17B681B68DB6803F00803082B1BD17B
:103C90007B681B686FF008021A617B6804221A7740
:103CA0007B681B68DB6903F00303002B03D0786893
:103CB00000F099F805E0786800F08CF8786800F07A
:103CC0009BF87B6800221A777B681B681B6903F0EE
:103CD0001003102B22D17B681B68DB6803F01003F4
:103CE000102B1BD17B681B686FF010021A617B6878
:103CF00008221A777B681B68DB6903F44073002B8A
:103D000003D0786800F06FF805E0786800F062F89A
:103D1000786800F071F87B6800221A777B681B686E
:103D20001B6903F00103012B0ED17B681B68DB6864
:103D300003F00103012B07D17B681B686FF00102C0
:103D40001A617868FEF75CF87B681B681B6903F0F2
:103D50008003802B0ED17B681B68DB6803F0800337
:103D6000802B07D17B681B686FF080021A6178682E
:103D700000F0BFF87B681B681B6903F04003402B11
:103D80000ED17B681B68DB6803F04003402B07D132
:103D90007B681B686FF040021A61786800F035F8A4
:103DA0007B681B681B6903F02003202B0ED17B6806
:103DB0001B68DB6803F02003202B07D17B681B689E
:103DC0006FF020021A61786800F08AF800BF0837A7
:103DD000BD4680BD80B483B000AF786000BF0C37B3
:103DE000BD4680BC704780B483B000AF786000BF30
:103DF0000C37BD4680BC704780B483B000AF78609C
:103E000000BF0C37BD4680BC704780B483B000AFA4
:103E1000786000BF0C37BD4680BC704780B485B069
:103E200000AF786039607B681B68FB607B68294A5B
:103E300093420BD07B68B3F1804F07D07B68264A52
:103E4000934203D07B68254A934208D1FB6823F054
:103E50007003FB603B685B68FA681343FB607B6838
:103E60001C4A93420BD07B68B3F1804F07D07B682C
:103E7000194A934203D07B68184A934208D1FB68E1
:103E800023F44073FB603B68DB68FA681343FB6014
:103E9000FB6823F080023B685B691343FB607B682F
:103EA000FA681A603B689A687B68DA623B681A684D
:103EB0007B689A627B68074A934203D13B681A6920
:103EC0007B681A637B6801225A6100BF1437BD46C4
:103ED00080BC7047002C01400004004000080040F6
:103EE00080B483B000AF786000BF0C37BD4680BCA3
:103EF000704780B483B000AF786000BF0C37BD4618
:103F000080BC704780B582B000AF78607B68002BC2
:103F100001D1012342E07B6893F84130DBB2002BF2
:103F200006D17B68002283F840207868FEF73EF8CF
:103F30007B68242283F841207B681B68DA687B68F1
:103F40001B6822F40052DA60786800F01DF97B6883
:103F50001B681A697B681B6822F490421A617B68AF
:103F60001B685A697B681B6822F02A025A617B68C9
:103F70001B68DA687B681B6842F40052DA607B6871
:103F800000225A647B68202283F841207B6820222B
:103F900083F842207B6800225A63002318460837C2
:103FA000BD4680BD80B58AB002AFF860B9603B60A5
:103FB0001346FB8000237B61FB6893F84130DBB242
:103FC000202B6DD1BB68002B02D0FB88002B01D1C8
:103FD000012366E0FB6800225A64FB68212283F813
:103FE0004120FEF7E1F97861FB68FA889A84FB6862
:103FF000FA88DA84FB689B68B3F5805F08D1FB68B8
:104000001B69002B04D10023FB61BB68BB6103E08B
:10401000BB68FB610023BB612AE03B6800937B69BE
:1040200000228021F86800F040F80346002B01D000
:10403000032336E0FB69002B0BD1BB691B881A46B2
:10404000FB681B68C2F308025A60BB690233BB619C
:1040500007E0FB691A78FB681B685A60FB6901334B
:10406000FB61FB68DB8C9BB2013B9AB2FB68DA8494
:10407000FB68DB8C9BB2002BCFD13B6800937B6944
:1040800000224021F86800F010F80346002B01D010
:10409000032306E0FB68202283F84120002300E090
:1040A000022318462037BD4680BD80B590B000AFD2
:1040B000F860B9603B601346FB7150E0BB6CB3F134
:1040C000FF3F4CD0BB6C002B07D0FEF76DF90246CA
:1040D0003B68D31ABA6C9A4241D2FB681B680C3316
:1040E000BB62BB6A53E8003F7B627B6A23F4D073F8
:1040F000FB63FB681B680C33FA6B7A633B63396BB9
:104100007A6B41E80023FB62FB6A002BE5D1FB6878
:104110001B6814337B617B6953E8003F3B613B695B
:1041200023F00103BB63FB681B681433BA6B3A626C
:10413000FB61F9693A6A41E80023BB61BB69002B66
:10414000E5D1FB68202283F84120FB68202283F818
:104150004220FB68002283F8402003230FE0FB6825
:104160001B681A68BB681340BA689A420CBF0123E7
:104170000023DBB21A46FB799A429FD000231846EF
:104180004037BD4680BD000080B584B000AF786088
:104190007B681B681B6923F440517B68DA687B6885
:1041A0001B680A431A617B689A687B681B691A431B
:1041B0007B685B691343BB607B681B68DB6823F427
:1041C000B05323F00C037A681268B9680B43D360CC
:1041D0007B681B685B6923F440717B689A697B6824
:1041E0001B680A435A617B681B682C4A934203D1BF
:1041F000FFF7A2FAF86002E0FFF78AFAF860FA68BF
:1042000013469B0013449A001A447B685B689B002A
:10421000B2FBF3F3224AA2FB03235B091901FA68FC
:1042200013469B0013449A001A447B685B689B000A
:10423000B2FBF3F21A4BA3FB02035B09642000FB01
:1042400003F3D31A1B013233154AA2FB03235B0984
:1042500003F0F0031944FA6813469B0013449A00D4
:104260001A447B685B689B00B2FBF3F20C4BA3FB28
:1042700002035B09642000FB03F3D31A1B013233F2
:10428000074AA2FB03235B0903F00F027B681B684C
:104290000A449A6000BF1037BD4680BD0038014017
:1042A0001F85EB5180B485B000AFEFF30583BB6091
:1042B000BB68002B0FD1EFF310837B607B68002B72
:1042C00009D1104B1B68022B09D1EFF311833B601E
:1042D0003B68002B03D06FF00503FB600CE0094B3B
:1042E0001B68002B05D1074B01221A600023FB60DD
:1042F00002E04FF0FF33FB60FB6818461437BD4601
:1043000080BC70476014002080B584B000AFEFF32C
:104310000583BB60BB68002B0FD1EFF310837B607C
:104320007B68002B09D1114B1B68022B09D1EFF3DD
:1043300011833B603B68002B03D06FF00503FB60EB
:104340000EE00A4B1B68012B07D1084B02221A60B2
:1043500001F0A2FA0023FB6002E04FF0FF33FB60A4
:10436000FB6818461037BD4680BD00BF60140020B2
:1043700080B592B004AFF860B9607A6000237B61C9
:10438000EFF305837B627B6A002B40F09480EFF3B0
:1043900010833B623B6A002B40F08D80484B1B68CA
:1043A000022B06D1EFF31183FB61FB69002B40F078
:1043B0008280FB68002B7ED080233B631823FB6246
:1043C0000023FB7607F11B037B634FF0FF33BB62D7
:1043D0007B68002B45D07B681B68002B02D07B6874
:1043E0001B687B637B689B69002B02D07B689B69A1
:1043F000FB62FB6A002B08D0FB6A382B05D87B6870
:104400005B6803F00103002B01D0002354E07B68BC
:104410005B69002B03D07B685B699B083B637B680F
:104420009B68002B0ED07B68DB685B2B0AD97B680E
:104430001B69002B06D07B685B69002B02D001232F
:10444000BB6210E07B689B68002B0CD17B68DB684B
:10445000002B08D17B681B69002B04D10023BB62B1
:1044600001E00023BB62BB6A012B10D17B681B6992
:104470007A68926802920193FB6A0093BB683A6B78
:10448000796BF86801F03CF803467B6113E0BB6A86
:10449000002B10D13B6B9AB207F114030193FB6A16
:1044A0000093BB68796BF86801F086F80346012B2E
:1044B00001D000237B617B6918463837BD4680BD3B
:1044C0006014002080B586B000AF7860EFF30583FC
:1044D0003B613B69002B0FD1EFF31083FB60FB685E
:1044E000002B09D10D4B1B68022B09D1EFF311836F
:1044F000BB60BB68002B03D06FF005037B6107E056
:1045000000237B617B68002B02D0786801F090F972
:104510007B6918461837BD4680BD00BF6014002077
:1045200080B58CB002AFF860B9607A6000237B621E
:10453000EFF30583BB61BB69002B6FD1EFF31083F1
:104540007B617B69002B69D1374B1B68022B05D13E
:10455000EFF311833B613B69002B5FD1FB68002BBC
:104560005CD0BB68002B59D04FF0FF333B627B68B7
:10457000002B29D07B689B68002B12D07B68DB68FE
:104580004F2B0ED97B681B69002B0AD07B685A69B8
:10459000FB68B96801FB03F39A4202D301233B6233
:1045A00014E07B689B68002B10D17B68DB68002BD4
:1045B0000CD17B681B69002B08D17B685B69002BE1
:1045C00004D100233B6201E000233B623B6A012BE4
:1045D0000BD17B681A697B689B6800210091B968E0
:1045E000F86800F053FA786208E03B6A002B05D1C6
:1045F0000022B968F86800F0C0FA78627B6A002B84
:104600000CD07B68002B03D07B681B68FB6101E04A
:104610000023FB61F969786A00F016FF7B6A18468F
:104620002837BD4680BD00BF6014002080B58AB029
:1046300000AFF860B9603B601346FB71FB683B62FA
:1046400000237B62EFF30583FB61FB69002B0FD135
:10465000EFF31083BB61BB69002B09D12B4B1B68A7
:10466000022B2ED1EFF311837B617B69002B28D0C5
:104670003B6A002B05D0BB68002B02D03B68002BA7
:1046800003D06FF003037B6239E000233B6107F145
:1046900010020023B968386A00F0CEFB0346012BF4
:1046A00003D06FF002037B6229E03B69002B26D028
:1046B000174B4FF080521A60BFF34F8FBFF36F8FCD
:1046C0001DE03B6A002B02D0BB68002B03D16FF0CA
:1046D00003037B6214E000233A68B968386A00F08B
:1046E000ADFA0346012B0BD03B68002B03D06FF0D3
:1046F00001037B6204E06FF002037B6200E000BF15
:104700007B6A18462837BD4680BD00BF6014002074
:1047100004ED00E080B58AB000AFF860B9607A605F
:104720003B60FB683B6200237B62EFF30583FB6128
:10473000FB69002B0FD1EFF31083BB61BB69002B2A
:1047400009D12B4B1B68022B2ED1EFF311837B6118
:104750007B69002B28D03B6A002B05D0BB68002B5F
:1047600002D03B68002B03D06FF003037B6238E07C
:1047700000233B6107F110031A46B968386A00F05C
:10478000D3FC0346012B03D06FF002037B6228E0C9
:104790003B69002B25D0174B4FF080521A60BFF3B6
:1047A0004F8FBFF36F8F1CE03B6A002B02D0BB68BA
:1047B000002B03D16FF003037B6213E03A68B96802
:1047C000386A00F0D1FB0346012B0BD03B68002B6D
:1047D00003D06FF001037B6204E06FF002037B62A1
:1047E00000E000BF7B6A18462837BD4680BD00BF89
:1047F0006014002004ED00E080B485B000AFF860E4
:10480000B9607A60FB68064A1A60BB68054A1A609C
:104810007B6880221A6000BF1437BD4680BC704799
:1048200064140020C014002080B485B000AFF8608C
:10483000B9607A60FB68074A1A60BB68064A1A606A
:104840007B684FF480721A6000BF1437BD4680BC8D
:10485000704700BFC01600201C17002080B483B032
:1048600000AF78607B6803F108027B685A607B6860
:104870004FF0FF329A607B6803F108027B68DA60D0
:104880007B6803F108027B681A617B6800221A606A
:1048900000BF0C37BD4680BC704780B483B000AF0A
:1048A00078607B6800221A6100BF0C37BD4680BC6F
:1048B000704780B485B000AF786039607B685B6812
:1048C000FB603B68FA685A60FB689A683B689A60CC
:1048D000FB689B683A685A60FB683A689A603B6874
:1048E0007A681A617B681B685A1C7B681A6000BF73
:1048F0001437BD4680BC704780B485B000AF786087
:1049000039603B681B68BB60BB68B3F1FF3F03D1F4
:104910007B681B69FB600CE07B680833FB6002E08E
:10492000FB685B68FB60FB685B681B68BA689A425F
:10493000F6D2FB685A683B685A603B685B683A6825
:104940009A603B68FA689A60FB683A685A603B680C
:104950007A681A617B681B685A1C7B681A6000BF02
:104960001437BD4680BC704780B485B000AF786016
:104970007B681B69FB607B685B687A6892689A60F9
:104980007B689B687A6852685A60FB685B687A68E3
:104990009A4203D17B689A68FB685A607B68002260
:1049A0001A61FB681B685A1EFB681A60FB681B686B
:1049B00018461437BD4680BC7047000080B584B0EF
:1049C00000AF786039607B68FB60FB68002B0AD120
:1049D0004FF0500383F31188BFF36F8FBFF34F8FF6
:1049E000BB6000BFFEE702F089F8FB681A68FB684D
:1049F000DB6BF968096C01FB03F31A44FB685A602E
:104A0000FB6800229A63FB681A68FB689A60FB687F
:104A10001A68FB68DB6B013BF968096C01FB03F367
:104A20001A44FB68DA60FB68FF2283F84420FB68C5
:104A3000FF2283F845203B68002B14D1FB681B69DB
:104A4000002B1AD0FB681033184601F0AFF903466B
:104A5000002B12D00C4B4FF080521A60BFF34F8FD7
:104A6000BFF36F8F09E0FB6810331846FFF7F6FEBF
:104A7000FB6824331846FFF7F1FE02F06FF80123BC
:104A800018461037BD4680BD04ED00E080B58EB0FD
:104A900002AFF860B9607A603B60FB68002B0AD116
:104AA0004FF0500383F31188BFF36F8FBFF34F8F25
:104AB000BB6200BFFEE73B68002B0AD14FF05003FA
:104AC00083F31188BFF36F8FBFF34F8F7B6200BFFB
:104AD000FEE77B68002B02D0BB68002B01D00123CE
:104AE00000E00023002B0AD14FF0500383F311881C
:104AF000BFF36F8FBFF34F8F3B6200BFFEE77B6852
:104B0000002B02D1BB68002B01D1012300E0002360
:104B1000002B0AD14FF0500383F31188BFF36F8F3E
:104B2000BFF34F8FFB6100BFFEE750237B617B69C2
:104B3000502B0AD04FF0500383F31188BFF36F8FCF
:104B4000BFF34F8FBB6100BFFEE73B68FB62FB6AB0
:104B5000002B0DD0FB6A012283F8462097F83820FD
:104B6000FB6A009313467A68B968F86800F043F866
:104B7000FB6A18463037BD4680BD80B58AB002AFAB
:104B8000F860B9601346FB71FB68002B0AD14FF047
:104B9000500383F31188BFF36F8FBFF34F8F3B61D7
:104BA00000BFFEE7BB68002B02D10023FB6104E0DD
:104BB000FB68BA6802FB03F3FB61FB6950331846DC
:104BC00002F09CF8B861BB69002B0FD0BB69503371
:104BD0007B61BB69002283F84620FA79BB690093A8
:104BE00013467A69B968F86800F005F8BB69184699
:104BF0002037BD4680BD80B584B000AFF860B96095
:104C00007A60FB70BB68002B03D1BB69BA691A607C
:104C100002E0BB697A681A60BB69FA68DA63BB694B
:104C2000BA681A640121B869FFF7C8FEBB69FA784F
:104C300083F84C2000BF1037BD4680BD80B58EB0D4
:104C400000AFF860B9607A603B6000237B63FB686B
:104C50003B633B6B002B0AD14FF0500383F3118869
:104C6000BFF36F8FBFF34F8FBB6200BFFEE7BB6820
:104C7000002B03D13B6B1B6C002B01D1012300E007
:104C80000023002B0AD14FF0500383F31188BFF3A8
:104C90006F8FBFF34F8F7B6200BFFEE73B68022B35
:104CA00003D13B6BDB6B012B01D1012300E000231F
:104CB000002B0AD14FF0500383F31188BFF36F8F9D
:104CC000BFF34F8F3B6200BFFEE701F031FA0346AE
:104CD000002B02D17B68002B01D1012300E00023CF
:104CE000002B0AD14FF0500383F31188BFF36F8F6D
:104CF000BFF34F8FFB6100BFFEE701F0FFFE3B6B90
:104D00009A6B3B6BDB6B9A4202D33B68022B29D137
:104D10003A68B968386B00F087FAF8623B6B5B6AF7
:104D2000002B10D03B6B2433184601F03FF80346AC
:104D3000002B13D03F4B4FF080521A60BFF34F8FC0
:104D4000BFF36F8F0AE0FB6A002B07D0394B4FF09F
:104D500080521A60BFF34F8FBFF36F8F01F0FEFEDA
:104D6000012363E07B68002B03D101F0F7FE0023F1
:104D70005CE07B6B002B06D107F11403184601F0B1
:104D800079F801237B6301F0E9FE00F0EBFD01F00F
:104D9000B5FE3B6B93F844305BB2B3F1FF3F03D1F8
:104DA0003B6B002283F844203B6B93F845305BB2A9
:104DB000B3F1FF3F03D13B6B002283F8452001F0A4
:104DC000CDFE3A1D07F114031146184601F068F8AC
:104DD0000346002B24D1386B00F01EFB0346002B4A
:104DE00018D03B6B10337A681146184600F08EFFDE
:104DF000386B00F0A9FA00F0C3FD0346002B7FF4E6
:104E00007CAF0C4B4FF080521A60BFF34F8FBFF353
:104E10006F8F72E7386B00F097FA00F0B1FD6CE726
:104E2000386B00F091FA00F0ABFD002318463837DC
:104E3000BD4680BD04ED00E080B58EB000AFF860E7
:104E4000B9607A603B60FB683B633B6B002B0AD127
:104E50004FF0500383F31188BFF36F8FBFF34F8F71
:104E60007B6200BFFEE7BB68002B03D13B6B1B6C72
:104E7000002B01D1012300E00023002B0AD14FF0C9
:104E8000500383F31188BFF36F8FBFF34F8F3B62E3
:104E900000BFFEE73B68022B03D13B6BDB6B012BB2
:104EA00001D1012300E00023002B0AD14FF0500371
:104EB00083F31188BFF36F8FBFF34F8FFB6100BF88
:104EC000FEE701F0DDFEEFF311824FF0500383F3B4
:104ED0001188BFF36F8FBFF34F8FBA617B61BB69DE
:104EE000FB623B6B9A6B3B6BDB6B9A4202D33B687A
:104EF000022B2CD13B6B93F8453087F82B303A6866
:104F0000B968386B00F090F997F92B30B3F1FF3F97
:104F100012D13B6B5B6A002B16D03B6B24331846D7
:104F200000F044FF0346002B0ED07B68002B0BD013
:104F30007B6801221A6007E097F82B300133DBB25F
:104F40005AB23B6B83F8452001237B6301E00023C9
:104F50007B63FB6A3B613B6983F3118800BF7B6B1A
:104F600018463837BD4680BD80B58CB000AFF860BC
:104F7000B9607A600023FB62FB68BB62BB6A002BEE
:104F80000AD14FF0500383F31188BFF36F8FBFF343
:104F90004F8F3B6200BFFEE7BB68002B03D1BB6AAB
:104FA0001B6C002B01D1012300E00023002B0AD150
:104FB0004FF0500383F31188BFF36F8FBFF34F8F10
:104FC000FB6100BFFEE701F0B3F80346002B02D1FE
:104FD0007B68002B01D1012300E00023002B0AD1C4
:104FE0004FF0500383F31188BFF36F8FBFF34F8FE0
:104FF000BB6100BFFEE701F081FDBB6A9B6B7B627A
:105000007B6A002B1FD0B968B86A00F077F97B6A19
:105010005A1EBB6A9A63BB6A1B69002B0FD0BB6A1E
:105020001033184600F0C2FE0346002B07D03D4B5C
:105030004FF080521A60BFF34F8FBFF36F8F01F0B4
:105040008DFD012369E07B68002B03D101F086FD13
:10505000002362E0FB6A002B06D107F1100318461B
:1050600000F008FF0123FB6201F078FD00F07AFCFC
:1050700001F044FDBB6A93F844305BB2B3F1FF3FEB
:1050800003D1BB6A002283F84420BB6A93F8453001
:105090005BB2B3F1FF3F03D1BB6A002283F8452026
:1050A00001F05CFD3A1D07F110031146184600F0AF
:1050B000F7FE0346002B23D1B86A00F097F90346A8
:1050C000002B17D0BB6A24337A681146184600F0CB
:1050D0001DFEB86A00F038F900F052FC0346002BC0
:1050E00089D1104B4FF080521A60BFF34F8FBFF33E
:1050F0006F8F80E7B86A00F027F900F041FC7AE78B
:10510000B86A00F021F900F03BFCB86A00F06EF9D3
:105110000346002B3FF46FAF002318463037BD46DF
:1051200080BD00BF04ED00E080B58EB000AFF86038
:10513000B9607A60FB683B633B6B002B0AD14FF090
:10514000500383F31188BFF36F8FBFF34F8F3B6220
:1051500000BFFEE7BB68002B03D13B6B1B6C002B31
:1051600001D1012300E00023002B0AD14FF05003AE
:1051700083F31188BFF36F8FBFF34F8FFB6100BFC5
:10518000FEE701F07DFDEFF311824FF0500383F352
:105190001188BFF36F8FBFF34F8FBA617B61BB691B
:1051A000FB623B6B9B6BBB62BB6A002B2FD03B6BE4
:1051B00093F8443087F82730B968386B00F09EF8D0
:1051C000BB6A5A1E3B6B9A6397F92730B3F1FF3FD6
:1051D00012D13B6B1B69002B16D03B6B103318466A
:1051E00000F0E4FD0346002B0ED07B68002B0BD0B3
:1051F0007B6801221A6007E097F827300133DBB2A1
:105200005AB23B6B83F8442001237B6301E0002307
:105210007B63FB6A3B613B6983F3118800BF7B6B57
:1052200018463837BD4680BD80B586B000AFF860FF
:10523000B9607A6000237B61FB689B6B3B61FB6814
:105240001B6C002B0DD1FB681B68002B4DD1FB683C
:105250005B68184600F08AFF7861FB6800225A609C
:1052600043E07B68002B19D1FB689868FB681B6CD6
:105270001A46B96801F044FFFB689A68FB681B6C2A
:105280001A44FB689A60FB689A68FB685B689A42FC
:105290002BD3FB681A68FB689A6026E0FB68D86825
:1052A000FB681B6C1A46B96801F02AFFFB68DA68D4
:1052B000FB681B6C5B421A44FB68DA60FB68DA68C7
:1052C000FB681B689A4207D2FB685A68FB681B6C34
:1052D0005B421A44FB68DA607B68022B05D13B69AC
:1052E000002B02D03B69013B3B613B695A1CFB68C8
:1052F0009A637B6918461837BD4680BD80B582B079
:1053000000AF786039607B681B6C002B18D07B681D
:10531000DA687B681B6C1A447B68DA607B68DA6841
:105320007B685B689A4203D37B681A687B68DA60A3
:105330007B68D9687B681B6C1A46386801F0E0FE10
:1053400000BF0837BD4680BD80B584B000AF78602F
:1053500001F0D4FB7B6893F84530FB7311E07B6868
:105360005B6A002B12D07B682433184600F01EFDC8
:105370000346002B01D000F0F5FDFB7B013BDBB2C7
:10538000FB7397F90F30002BE9DC00E000BF7B686E
:10539000FF2283F8452001F0E1FB01F0AFFB7B68C1
:1053A00093F84430BB7311E07B681B69002B12D06B
:1053B0007B681033184600F0F9FC0346002B01D03F
:1053C00000F0D0FDBB7B013BDBB2BB7397F90E3025
:1053D000002BE9DC00E000BF7B68FF2283F844205B
:1053E00001F0BCFB00BF1037BD4680BD80B584B066
:1053F00000AF786001F082FB7B689B6B002B02D1D1
:105400000123FB6001E00023FB6001F0A7FBFB68C8
:1054100018461037BD4680BD80B584B000AF7860B7
:1054200001F06CFB7B689A6B7B68DB6B9A4202D164
:105430000123FB6001E00023FB6001F08FFBFB68B0
:1054400018461037BD4680BD80B485B000AF786087
:1054500039600023FB6014E00E4AFB6852F83330D9
:10546000002B0BD10B49FB683A6841F83320094AFD
:10547000FB68DB0013447A685A6006E0FB6801337E
:10548000FB60FB68072BE7D900BF00BF1437BD46A0
:1054900080BC70471C1B002080B586B000AFF86050
:1054A000B9607A60FB687B6101F028FB7B6993F847
:1054B00044305BB2B3F1FF3F03D17B69002283F834
:1054C00044207B6993F845305BB2B3F1FF3F03D1D1
:1054D0007B69002283F8452001F040FB7B699B6BD0
:1054E000002B06D17B6924337A68B968184600F02E
:1054F00031FC7869FFF728FF00BF1837BD4680BD33
:1055000080B58EB004AFF860B9607A603B607B6BA9
:10551000002B0AD14FF0500383F31188BFF36F8F34
:10552000BFF34F8F3B6200BFFEE7BB6B002B0AD17E
:105530004FF0500383F31188BFF36F8FBFF34F8F8A
:10554000FB6100BFFEE75C233B613B695C2B0AD03B
:105550004FF0500383F31188BFF36F8FBFF34F8F6A
:10556000BB6100BFFEE7BB6B002B1ED07B6B002B2B
:105570001BD0BB6B7B627B6A7A6B1A637B6A0222ED
:1055800083F85920002303937B6A029307F11403E5
:1055900001933B6B00933B687A68B968F86800F048
:1055A00050F8786A00F0D4F801E000237B617B6951
:1055B00018462837BD4680BD80B58CB004AFF86072
:1055C000B9603B601346FB80FB889B00184601F0E6
:1055D00095FB78617B69002B0ED05C2001F08EFB7F
:1055E000F861FB69002B03D0FB697A691A6305E057
:1055F000786901F047FC01E00023FB61FB69002BA7
:1056000017D0FB69002283F85920FA8800230393FE
:10561000FB690293FB6A0193BB6A00933B68B9681C
:10562000F86800F00EF8F86900F092F80123BB6109
:1056300002E04FF0FF33BB61BB6918462037BD461F
:1056400080BD80B588B000AFF860B9607A603B601B
:105650003B6B186B7B689B001A46A52101F05EFD31
:105660003B6B1A6B7B6803F18043013B9B00134447
:10567000BB61BB6923F00703BB61BB6903F0070390
:10568000002B0AD04FF0500383F31188BFF36F8FC4
:10569000BFF34F8F7B6100BFFEE70023FB6112E089
:1056A000BA68FB69134419783A6BFB6913443433C5
:1056B0000A461A70BA68FB6913441B78002B06D09F
:1056C000FB690133FB61FB690F2BE9D900E000BFE7
:1056D0003B6B002283F84320BB6A372B01D9372369
:1056E000BB623B6BBA6ADA623B6BBA6ADA643B6BE9
:1056F00000221A653B6B04331846FFF7CEF83B6B6C
:1057000018331846FFF7C9F83B6B3A6B1A61BB6A4E
:10571000C3F138023B6B9A613B6B3A6B5A623B6B4D
:1057200000225A653B6B002283F858203A68F968DA
:10573000B86901F0EFF802463B6B1A60FB6A002B78
:1057400002D0FB6A3A6B1A6000BF2037BD4680BDAD
:1057500080B582B000AF786001F0D0F92D4B1B68A6
:1057600001332C4A13602C4B1B68002B09D12A4AA9
:105770007B681360274B1B68012B10D100F016FCCF
:105780000DE0264B1B68002B09D1234B1B68DA6AFE
:105790007B68DB6A9A4202D81F4A7B681360204B01
:1057A0001B6801331E4A13601D4B1A687B685A64DC
:1057B0007B68DA6A1B4B1B689A4203D97B68DB6AF9
:1057C000184A13607B68DA6A13469B0013449B00F7
:1057D000154A1A447B68043319461046FFF769F8E6
:1057E00001F0BCF90D4B1B68002B0ED00A4B1B6857
:1057F000DA6A7B68DB6A9A4207D20C4B4FF0805220
:105800001A60BFF34F8FBFF36F8F00BF0837BD46DD
:1058100080BD00BF302000205C1B00203C20002009
:105820004C20002038200020601B002004ED00E008
:1058300080B584B000AF78600023FB607B68002BEC
:1058400017D0134B1B68002B0AD04FF0500383F383
:105850001188BFF36F8FBFF34F8FBB6000BFFEE7B0
:1058600000F080F80021786800F0EEFC00F088F885
:10587000F860FB68002B07D1064B4FF080521A608E
:10588000BFF34F8FBFF36F8F00BF1037BD4680BD92
:105890005820002004ED00E080B58AB004AF00235A
:1058A000BB6000237B603A46391D07F108031846A8
:1058B000FEF7A2FF39687B68BA6802920193002361
:1058C000009300230A4621492148FFF719FE0346A9
:1058D000204A13601F4B1B68002B02D001237B6101
:1058E00001E000237B617B69012B02D100F000FD08
:1058F00078617B69012B16D14FF0500383F3118837
:10590000BFF36F8FBFF34F8F3B6100BF124B4FF060
:10591000FF321A60114B01221A60114B00221A60EB
:1059200001F07AF80EE07B69B3F1FF3F0AD14FF046
:10593000500383F31188BFF36F8FBFF34F8FFB606A
:1059400000BFFEE700BF1837BD4680BD20BA000883
:105950007D5F000854200020502000203C200020C3
:105960003420002080B400AF044B1B680133034A8D
:10597000136000BFBD4680BC704700BF58200020A8
:1059800080B584B000AF0023FB600023BB60424BB6
:105990001B68002B0AD14FF0500383F31188BFF32B
:1059A0006F8FBFF34F8F3B6000BFFEE701F0A6F89B
:1059B000394B1B68013B384A1360374B1B68002B7F
:1059C00062D1364B1B68002B5ED02FE0344BDB6876
:1059D000DB68FB60FB6818331846FEF7C5FFFB6801
:1059E00004331846FEF7C0FFFB68DA6A2D4B1B68CC
:1059F0009A4203D9FB68DB6A2A4A1360FB68DA6AB9
:105A000013469B0013449B00274A1A44FB68043347
:105A100019461046FEF74DFFFB68DA6A234B1B68F8
:105A2000DB6A9A4202D3224B01221A601C4B1B688C
:105A3000002BCBD1FB68002B01D000F055FB1D4B98
:105A40001B687B607B68002B10D000F045F8034694
:105A5000002B02D0164B01221A607B68013B7B6051
:105A60007B68002BF1D1134B00221A60104B1B688E
:105A7000002B09D00123BB600F4B4FF080521A60FE
:105A8000BFF34F8FBFF36F8F01F068F8BB68184604
:105A90001037BD4680BD00BF5820002030200020B8
:105AA000F01F002038200020601B00205C1B00201D
:105AB000442000204020002004ED00E080B483B0AA
:105AC00000AF044B1B687B607B6818460C37BD46F3
:105AD00080BC70473420002080B586B000AF002322
