:020000040800F2
:1000000000500020E12D0008992B0008C92B0008A2
:10001000F92B0008292C00082F2C000800000000F4
:1000200000000000000000000000000061880008DF
:10003000352C000800000000418A0008898A000869
:10004000292E0008292E0008292E0008292E000834
:10005000292E0008292E0008292E0008292E000824
:10006000292E0008292E0008292E0008292E000814
:10007000292E0008292E0008292E0008292E000804
:10008000292E0008292E0008292E0008292E0008F4
:10009000292E0008292E0008292E0008292E0008E4
:1000A000292E0008292E0008292E0008292E0008D4
:1000B000292E0008292E0008412C0008292E0008AE
:1000C000292E0008292E0008292E0008292E0008B4
:1000D000292E0008292E0008292E0008292E0008A4
:1000E000292E0008292E0008292E000800000000F3
:1000F0000000000000000000000000000000000000
:0C01000000000000000000005FF808F1A3
:1001100010B5054C237833B9044B13B10448AFF341
:1001200000800123237010BDF001002000000000BA
:1001300010D8000808B5034B1BB103490348AFF3BF
:10014000008008BD00000000F401002010D8000865
:1001500010F8012B11F8013B012A28BF9A42F7D071
:10016000D01A7047034613F8012B002AFBD1181A46
:100170000138704781F0004102E000BF83F0004386
:1001800030B54FEA41044FEA430594EA050F08BF32
:1001900090EA020F1FBF54EA000C55EA020C7FEAF6
:1001A000645C7FEA655C00F0E2804FEA5454D4EB73
:1001B0005555B8BF6D420CDD2C4480EA020281EA3D
:1001C000030382EA000083EA010180EA020281EA75
:1001D0000303362D88BF30BD11F0004F4FEA0131C7
:1001E0004FF4801C4CEA113102D0404261EB4101D6
:1001F00013F0004F4FEA03334CEA133302D052425C
:1002000063EB430394EA050F00F0A780A4F1010417
:10021000D5F1200E0DDB02FA0EFC22FA05F2801851
:1002200041F1000103FA0EF2801843FA05F3594137
:100230000EE0A5F120050EF1200E012A03FA0EFCB6
:1002400028BF4CF0020C43FA05F3C01851EBE371E0
:1002500001F0004507D54FF0000EDCF1000C7EEBFD
:1002600000006EEB0101B1F5801F1BD3B1F5001F3B
:100270000CD349085FEA30004FEA3C0C04F101045A
:100280004FEA445212F5800F80F09A80BCF1004F83
:1002900008BF5FEA500C50F1000041EB045141EA05
:1002A000050130BD5FEA4C0C404141EB0101013CCE
:1002B00028BFB1F5801FE9D291F0000F04BF0146BD
:1002C0000020B1FA81F308BF2033A3F10B03B3F18F
:1002D00020020CDA0C3208DD02F1140CC2F10C021F
:1002E00001FA0CF021FA02F10CE002F11402D8BF7D
:1002F000C2F1200C01FA02F120FA0CFCDCBF41EA49
:100300000C019040E41AA2BF01EB0451294330BD17
:100310006FEA04041F3C1CDA0C340EDC04F11404F4
:10032000C4F1200220FA04F001FA02F340EA0300CB
:1003300021FA04F345EA030130BDC4F10C04C4F111
:10034000200220FA02F001FA04F340EA03002946F1
:1003500030BD21FA04F0294630BD94F0000F83F43B
:10036000801306BF81F480110134013D4EE77FEA1E
:10037000645C18BF7FEA655C29D094EA050F08BF6A
:1003800090EA020F05D054EA000C04BF194610464B
:1003900030BD91EA030F1EBF0021002030BD5FEA8F
:1003A000545C05D14000494128BF41F0004130BDB7
:1003B00014F580043CBF01F5801130BD01F000450B
:1003C00045F0FE4141F470014FF0000030BD7FEA7E
:1003D000645C1ABF194610467FEA655C1CBF0B4679
:1003E000024650EA013406BF52EA033591EA030F90
:1003F00041F4002130BD00BF90F0000F04BF002188
:10040000704730B54FF4806404F132044FF00005BA
:100410004FF0000150E700BF90F0000F04BF002133
:10042000704730B54FF4806404F1320410F0004599
:1004300048BF40424FF000013EE700BF42004FEA94
:10044000E2014FEA31014FEA02701FBF12F07F4311
:1004500093F07F4F81F06051704732F07F4208BFC8
:10046000704793F07F4F04BF41F40021704730B5CF
:100470004FF4607401F0004521F000411CE700BF1B
:1004800050EA010208BF704730B54FF000050AE09E
:1004900050EA010208BF704730B511F0004502D59F
:1004A000404261EB41014FF4806404F132045FEAA1
:1004B000915C3FF4D8AE4FF003025FEADC0C18BF4A
:1004C00003325FEADC0C18BF033202EBDC02C2F13C
:1004D000200300FA03FC20FA02F001FA03FE40EACE
:1004E0000E0021FA02F11444BDE600BF70B54FF0D2
:1004F000FF0C4CF4E06C1CEA11541DBF1CEA1355B0
:1005000094EA0C0F95EA0C0F00F0DEF82C4481EA17
:10051000030621EA4C5123EA4C5350EA013518BF37
:1005200052EA033541F4801143F4801338D0A0FB24
:1005300002CE4FF00005E1FB02E506F00042E0FBD1
:1005400003E54FF00006E1FB03569CF0000F18BFD7
:100550004EF0010EA4F1FF04B6F5007F64F540747F
:1005600004D25FEA4E0E6D4146EB060642EAC62112
:1005700041EA55514FEAC52040EA5E504FEACE2E7F
:10058000B4F1FD0C88BFBCF5E06F1ED8BEF1004F82
:1005900008BF5FEA500E50F1000041EB045170BDFE
:1005A00006F0004646EA010140EA020081EA030142
:1005B000B4EB5C04C2BFD4EB0C0541EA045170BD3E
:1005C00041F480114FF0000E013C00F3AB8014F1B8
:1005D000360FDEBF002001F0004170BDC4F1000401
:1005E000203C35DA0C341BDC04F11404C4F1200582
:1005F00000FA05F320FA04F001FA05F240EA0200DD
:1006000001F0004221F0004110EBD37021FA04F612
:1006100042EB06015EEA430E08BF20EAD37070BDCC
:10062000C4F10C04C4F1200500FA04F320FA05F02B
:1006300001FA04F240EA020001F0004110EBD3702D
:1006400041F100015EEA430E08BF20EAD37070BD9D
:10065000C4F1200500FA05F24EEA020E20FA04F376
:1006600001FA05F243EA020321FA04F001F0004125
:1006700021FA04F220EA020000EBD3705EEA430E96
:1006800008BF20EAD37070BD94F0000F0FD101F0C5
:100690000046400041EB010111F4801F08BF013CFE
:1006A000F7D041EA060195F0000F18BF704703F03C
:1006B0000046520043EB030313F4801F08BF013DC3
:1006C000F7D043EA0603704794EA0C0F0CEA13557F
:1006D00018BF95EA0C0F0CD050EA410618BF52EA39
:1006E0004306D1D181EA030101F000414FF000003F
:1006F00070BD50EA410606BF1046194652EA43064D
:1007000019D094EA0C0F02D150EA013613D195EAC0
:100710000C0F05D152EA03361CBF104619460AD108
:1007200081EA030101F0004141F0FE4141F4700112
:100730004FF0000070BD41F0FE4141F4780170BD02
:1007400070B54FF0FF0C4CF4E06C1CEA11541DBF67
:100750001CEA135594EA0C0F95EA0C0F00F0A7F869
:10076000A4EB050481EA030E52EA03354FEA013196
:1007700000F088804FEA03334FF0805545EA1313A9
:1007800043EA12634FEA022245EA111545EA106571
:100790004FEA00260EF000419D4208BF964244F108
:1007A000FD0404F5407402D25B084FEA3202B61A27
:1007B00065EB03055B084FEA32024FF480104FF4FB
:1007C000002CB6EB020E75EB030E22BFB61A75466F
:1007D00040EA0C005B084FEA3202B6EB020E75EB02
:1007E000030E22BFB61A754640EA5C005B084FEA6A
:1007F0003202B6EB020E75EB030E22BFB61A754637
:1008000040EA9C005B084FEA3202B6EB020E75EB41
:10081000030E22BFB61A754640EADC0055EA060E02
:1008200018D04FEA051545EA16754FEA06164FEA45
:10083000C30343EA52734FEAC2025FEA1C1CC0D1F1
:1008400011F4801F0BD141EA00014FF000004FF07E
:10085000004CB6E711F4801F04BF01430020B4F13F
:10086000FD0C88BFBCF5E06F3FF6AFAEB5EB030CF7
:1008700004BFB6EB020C5FEA500C50F1000041EBF4
:10088000045170BD0EF0004E4EEA113114EB5C04C1
:10089000C2BFD4EB0C0541EA045170BD41F4801194
:1008A0004FF0000E013C90E645EA060E8DE60CEA9C
:1008B000135594EA0C0F08BF95EA0C0F3FF43BAFB9
:1008C00094EA0C0F0AD150EA01347FF434AF95EA70
:1008D0000C0F7FF425AF104619462CE795EA0C0F54
:1008E00006D152EA03353FF4FDAE1046194622E721
:1008F00050EA410618BF52EA43067FF4C5AE50EAFB
:1009000041047FF40DAF52EA43057FF4EBAE12E7EA
:100910004FF0FF3C06E000BF4FF0010C02E000BFCB
:100920004FF0010C4DF804CD4FEA410C7FEA6C5CAE
:100930004FEA430C18BF7FEA6C5C1BD001B050EA51
:10094000410C0CBF52EA430C91EA030F02BF90EA3C
:10095000020F0020704710F1000F91EA030F58BFFB
:10096000994208BF90422CBFD8176FEAE37040F05D
:10097000010070474FEA410C7FEA6C5C02D150EAFB
:10098000013C07D14FEA430C7FEA6C5CD6D152EAB6
:10099000033CD3D05DF8040B704700BF844610467B
:1009A00062468C461946634600E000BF01B5FFF77A
:1009B000B7FF002848BF10F1000F01BD4DF808ED4A
:1009C000FFF7F4FF0CBF012000205DF808FB00BF1B
:1009D0004DF808EDFFF7EAFF34BF012000205DF875
:1009E00008FB00BF4DF808EDFFF7E0FF94BF0120C2
:1009F00000205DF808FB00BF4DF808EDFFF7CEFFC3
:100A000094BF012000205DF808FB00BF4DF808ED01
:100A1000FFF7C4FF34BF012000205DF808FB00BFD2
:100A20004FEA410C7FEA6C5C02D150EA013C0AD1EA
:100A30004FEA430C7FEA6C5C02D152EA033C02D1DC
:100A40004FF0000070474FF0010070474FEA41023D
:100A500012F5001215D211D56FF47873B3EB625210
:100A600012D94FEAC12343F0004343EA505311F037
:100A7000004F23FA02F018BF404270474FF00000C9
:100A8000704750EA013005D111F0004008BF6FF007
:100A9000004070474FF00000704700BF4A0011D27D
:100AA00012F5001211D20DD56FF47873B3EB6252C8
:100AB0000ED44FEAC12343F0004343EA505323FAD4
:100AC00002F070474FF00000704750EA013002D149
:100AD0004FF0FF3070474FF0000070474FEA41027F
:100AE000B2F1E04324BFB3F5001CDCF1FE5C0DD98C
:100AF00001F0004C4FEAC0024CEA5070B2F1004FD6
:100B000040EB830008BF20F00100704711F0804FD8
:100B100021D113F13872BCBF01F00040704741F49D
:100B200080114FEA5252C2F11802C2F1200C10FAA1
:100B30000CF320FA02F018BF40F001004FEAC12385
:100B40004FEAD32303FA0CFC40EA0C0023FA02F329
:100B50004FEA4303CCE77FEA625307D150EA0133FF
:100B60001EBF4FF0FE4040F44000704701F00040CF
:100B700040F0FE4040F40000704700BF80F00040AD
:100B800002E000BF81F0004142001FBF5FEA410365
:100B900092EA030F7FEA226C7FEA236C6AD04FEA65
:100BA0001262D2EB1363C1BFD218414048404140AA
:100BB000B8BF5B42192B88BF704710F0004F40F45C
:100BC000000020F07F4018BF404211F0004F41F478
:100BD000000121F07F4118BF494292EA030F3FD044
:100BE000A2F1010241FA03FC10EB0C00C3F1200357
:100BF00001FA03F100F0004302D5494260EB4000E6
:100C0000B0F5000F13D3B0F1807F06D340084FEA50
:100C1000310102F10102FE2A51D2B1F1004F40EB45
:100C2000C25008BF20F0010040EA030070474900AD
:100C300040EB0000013A28BFB0F5000FEDD2B0FA4A
:100C400080FCACF1080CB2EB0C0200FA0CF0AABF6D
:100C500000EBC25052421843BCBFD040184370470B
:100C600092F0000F81F4000106BF80F40000013211
:100C7000013BB5E74FEA41037FEA226C18BF7FEAE8
:100C8000236C21D092EA030F04D092F0000F08BF2A
:100C90000846704790EA010F1CBF0020704712F011
:100CA0007F4F04D1400028BF40F00040704712F150
:100CB00000723CBF00F50000704700F0004343F0B5
:100CC000FE4040F4000070477FEA226216BF0846EB
:100CD0007FEA23630146420206BF5FEA412390EAAE
:100CE000010F40F4800070474FF0000304E000BFA4
:100CF00010F0004348BF40425FEA000C08BF704755
:100D000043F0964301464FF000001CE050EA010218
:100D100008BF70474FF000030AE000BF50EA01022D
:100D200008BF704711F0004302D5404261EB41011A
:100D30005FEA010C02BF84460146002043F0B6433F
:100D400008BFA3F18053A3F50003BCFA8CF2083A64
:100D5000A3EBC25310DB01FA02FC634400FA02FC6D
:100D6000C2F12002BCF1004F20FA02F243EB020074
:100D700008BF20F00100704702F1200201FA02FCD6
:100D8000C2F1200250EA4C0021FA02F243EB0200C9
:100D900008BF20EADC7070474FF0FF0C1CEAD0520D
:100DA0001EBF1CEAD15392EA0C0F93EA0C0F6FD0CE
:100DB0001A4480EA010C400218BF5FEA41211ED0AC
:100DC0004FF0006343EA501043EA5111A0FB013198
:100DD0000CF00040B1F5000F3EBF490041EAD3716D
:100DE0005B0040EA010062F17F02FD2A1DD8B3F1E9
:100DF000004F40EBC25008BF20F00100704790F058
:100E0000000F0CF0004C08BF49024CEA502040EAA9
:100E100051207F3AC2BFD2F1FF0340EAC25070476F
:100E200040F400004FF00003013A5DDC12F1190FAD
:100E3000DCBF00F000407047C2F10002410021FA1F
:100E400002F1C2F1200200FA02FC5FEA310040F137
:100E5000000053EA4C0308BF20EADC70704792F0B0
:100E6000000F00F0004C02BF400010F4000F013AE8
:100E7000F9D040EA0C0093F0000F01F0004C02BFE3
:100E8000490011F4000F013BF9D041EA0C018FE752
:100E90000CEAD15392EA0C0F18BF93EA0C0F0AD058
:100EA00030F0004C18BF31F0004CD8D180EA01007E
:100EB00000F00040704790F0000F17BF90F0004F17
:100EC000084691F0000F91F0004F14D092EA0C0FF9
:100ED00001D142020FD193EA0C0F03D14B0218BF8C
:100EE000084608D180EA010000F0004040F0FE40D2
:100EF00040F40000704740F0FE4040F4400070476E
:100F00004FF0FF0C1CEAD0521EBF1CEAD15392EAEC
:100F10000C0F93EA0C0F69D0A2EB030280EA010CDC
:100F200049024FEA402037D04FF0805343EA111175
:100F300043EA10130CF000408B4238BF5B0042F1D3
:100F40007D024FF4000C8B4224BF5B1A40EA0C0078
:100F5000B3EB510F24BFA3EB510340EA5C00B3EBAA
:100F6000910F24BFA3EB910340EA9C00B3EBD10F98
:100F700024BFA3EBD10340EADC001B0118BF5FEAEA
:100F80001C1CE0D1FD2A3FF650AF8B4240EBC25013
:100F900008BF20F0010070470CF0004C4CEA5020D4
:100FA0007F32C2BFD2F1FF0340EAC250704740F423
:100FB00000004FF00003013A37E792F0000F00F015
:100FC000004C02BF400010F4000F013AF9D040EA93
:100FD0000C0093F0000F01F0004C02BF490011F427
:100FE000000F013BF9D041EA0C0195E70CEAD1531F
:100FF00092EA0C0F08D142027FF47DAF93EA0C0F06
:101000007FF470AF084676E793EA0C0F04D14B02E9
:101010003FF44CAF08466EE730F0004C18BF31F09B
:10102000004CCAD130F000427FF45CAF31F0004395
:101030007FF43CAF5FE700BF4FF0FF3C06E000BF2E
:101040004FF0010C02E000BF4FF0010C4DF804CD51
:101050004FEA40024FEA41037FEA226C18BF7FEA61
:10106000236C11D001B052EA530C18BF90EA010F63
:1010700058BFB2EB030088BFC81738BF6FEAE170F2
:1010800018BF40F0010070477FEA226C02D15FEA8E
:10109000402C05D17FEA236CE4D15FEA412CE1D0FA
:1010A0005DF8040B704700BF844608466146FFE7C1
:1010B0000FB5FFF7C9FF002848BF10F1000F0FBDA3
:1010C0004DF808EDFFF7F4FF0CBF012000205DF89C
:1010D00008FB00BF4DF808EDFFF7EAFF34BF012021
:1010E00000205DF808FB00BF4DF808EDFFF7E0FFBA
:1010F00094BF012000205DF808FB00BF4DF808ED0B
:10110000FFF7D2FF94BF012000205DF808FB00BF6D
:101110004DF808EDFFF7C8FF34BF012000205DF84F
:1011200008FB00BF38B505460C46002200232846C0
:101130002146FFF74DFC28B928462146BDE8384036
:1011400000F00AB8284604F1004100F005F84042DA
:1011500061EB410138BD00BFD0B500220B4B064604
:101160000F46FFF7C3F9FFF799FC0446FFF744F970
:101170000022074BFFF7BAF902460B4630463946C4
:10118000FEF7FCFFFFF78AFC2146D0BD0000F03DD2
:101190000000F04180B582B000AF0346FB71002231
:1011A0004FF40061104802F021FC002202210E4899
:1011B00002F01CFC0D4AFB79D36000BF0B4B9B680F
:1011C00003F00203002BF9D000BF084B9B6803F02B
:1011D0008003002BF9D101220221034802F006FC12
:1011E00000BF0837BD4680BD000C01400030014003
:1011F00080B582B000AF0346FB7101224FF400615D
:10120000104802F0F3FB002202210E4802F0EEFB30
:101210000D4AFB79D36000BF0B4B9B6803F00203C0
:10122000002BF9D000BF084B9B6803F08003002B14
:10123000F9D101220221034802F0D8FB00BF083790
:10124000BD4680BD000C01400030014090B583B028
:1012500000AF0446084611461A462346FB80034663
:10126000BB800B467B8013463B8000224FF400611D
:10127000644802F0BBFB00220221624802F0B6FB88
:10128000614B2A22DA6000BF5F4B9B6803F00203C8
:10129000002BF9D000BF5C4B9B6803F08003002B50
:1012A000F9D101224FF40061564802F09FFBFB8800
:1012B0001B0A9BB2DAB2544BDA6000BF524B9B68F8
:1012C00003F00203002BF9D0FB88DAB24E4BDA6050
:1012D00000BF4D4B9B6803F00203002BF9D07B88C5
:1012E0001B0A9BB2DAB2484BDA6000BF464B9B68E0
:1012F00003F00203002BF9D07B88DAB2424BDA60AC
:1013000000BF414B9B6803F00203002BF9D000BFE4
:101310003D4B9B6803F08003002BF9D100224FF472
:101320000061384802F062FB374B2B22DA6000BFC5
:10133000354B9B6803F00203002BF9D000BF324B02
:101340009B6803F08003002BF9D101224FF4006168
:101350002C4802F04BFBBB881B0A9BB2DAB22A4B2B
:10136000DA6000BF284B9B6803F00203002BF9D022
:10137000BB88DAB2244BDA6000BF234B9B6803F0D2
:101380000203002BF9D03B881B0A9BB2DAB21E4B3A
:10139000DA6000BF1C4B9B6803F00203002BF9D0FE
:1013A0003B88DAB2184BDA6000BF174B9B6803F03A
:1013B0000203002BF9D000BF134B9B6803F080039E
:1013C000002BF9D100224FF400610E4802F00EFB11
:1013D0000D4B2C22DA6000BF0B4B9B6803F002031D
:1013E000002BF9D000BF084B9B6803F08003002B53
:1013F000F9D101220221034802F0F8FA00BF0C37AC
:10140000BD4690BD000C01400030014080B500AFEA
:1014100000224FF480610B4802F0E8FAC82001F086
:1014200037FD00220221074802F0E0FAC82001F04F
:101430002FFD01224FF48061024802F0D7FA00BF6D
:1014400080BD00BF000C014080B582B000AF0346F4
:10145000FB7100224FF400612E4802F0C7FA00220F
:1014600002212C4802F0C2FA2B4B3622DA6000BF70
:10147000294B9B6803F00203002BF9D000BF264BD9
:101480009B6803F08003002BF9D10122022121483F
:1014900002F0ACFAFB79032B36D801A252F823F004
:1014A000B1140008C7140008DD140008F314000884
:1014B0004820FFF79DFE194BF0221A80184B4FF47D
:1014C000A0721A8021E02820FFF792FE134B4FF400
:1014D000A0721A80124BF0221A8016E08820FFF7C3
:1014E00087FE0E4BF0221A800D4B4FF4A0721A802B
:1014F0000BE0E820FFF77CFE084B4FF4A0721A8047
:10150000074BF0221A8000E000BF00BF0837BD463D
:1015100080BD00BF000C01400030014002000020EF
:101520000000002080B500AF01224FF480618548A3
:1015300002F05CFAFFF76AFF0120FFF72BFE4FF481
:101540007A7001F0A5FCCB20FFF724FE3920FFF7CD
:101550004FFE2C20FFF74CFE0020FFF749FE342001
:10156000FFF746FE0220FFF743FECF20FFF712FEF3
:101570000020FFF73DFEC120FFF73AFE3020FFF7C5
:1015800037FEE820FFF706FE8520FFF731FE00203A
:10159000FFF72EFE7820FFF72BFEEA20FFF7FAFD7B
:1015A0000020FFF725FE0020FFF722FEED20FFF7C9
:1015B000F1FD6420FFF71CFE0320FFF719FE122047
:1015C000FFF716FE8120FFF713FEF720FFF7E2FD7D
:1015D0002020FFF70DFEC020FFF7DCFD2320FFF7E2
:1015E00007FEC120FFF7D6FD1020FFF701FEC52042
:1015F000FFF7D0FD3E20FFF7FBFD2820FFF7F8FDA9
:10160000C720FFF7C7FD8620FFF7F2FD3620FFF762
:10161000C1FD4820FFF7ECFD3A20FFF7BBFD552048
:10162000FFF7E6FDB120FFF7B5FD0020FFF7E0FD75
:101630001820FFF7DDFDB620FFF7ACFD0820FFF70F
:10164000D7FD8220FFF7D4FD2720FFF7D1FDF22040
:10165000FFF7A0FD0020FFF7CBFD2620FFF79AFD46
:101660000120FFF7C5FDE020FFF794FD0F20FFF7F5
:10167000BFFD3120FFF7BCFD2B20FFF7B9FD0C208B
:10168000FFF7B6FD0E20FFF7B3FD0820FFF7B0FD12
:101690004E20FFF7ADFDF120FFF7AAFD3720FFF741
:1016A000A7FD0720FFF7A4FD1020FFF7A1FD0320F1
:1016B000FFF79EFD0E20FFF79BFD0920FFF798FD29
:1016C0000020FFF795FDE120FFF764FD0020FFF704
:1016D0008FFD0E20FFF78CFD1420FFF789FD0320FE
:1016E000FFF786FD1120FFF783FD0720FFF780FD40
:1016F0003120FFF77DFDC120FFF77AFD4820FFF77D
:1017000077FD0820FFF774FD0F20FFF771FD0C2017
:10171000FFF76EFD3120FFF76BFD3620FFF768FD08
:101720000F20FFF765FD1120FFF734FD782001F051
:10173000AFFB2920FFF72EFD0320FFF785FE00BF3A
:1017400080BD00BF000C014080B582B000AF0346F1
:101750003960FB8001224FF400611E4802F046F917
:10176000002202211B4802F041F918E0FB881B0A05
:101770009AB2194BDA6000BF174B9B6803F0020363
:10178000002BF9D0144AFB88D36000BF124B9B6832
:1017900003F00203002BF9D03B68013B3B603B6840
:1017A000002BE3D100BF0C4B9B6803F00203002B1E
:1017B000F9D000BF084B9B6803F08003002BF9D1E0
:1017C00001220221034802F011F900BF0837BD468B
:1017D00080BD00BF000C01400030014080B582B0E8
:1017E00000AF0346FB800E4B1B889AB20D4B1B8843
:1017F0009BB200210020FFF729FD094B1B889BB2FB
:101800001A46084B1B889BB202FB03F31A46FB885F
:1018100011461846FFF798FF00BF0837BD4680BD48
:10182000020000200000002082B090B587B000AF19
:10183000FB620346FB800B46BB801346FB7097F8A8
:101840002C309AB2FB8813449BB2013B9CB297F8B0
:101850002D309AB2BB8813449BB2013B9BB2B9882E
:10186000F8882246FFF7F2FC00237B613DE03A6BEB
:10187000FB78203B97F82D1001FB03F319467B6999
:101880000B445B0013441B88FB6000233B6123E097
:10189000FA683B6902FA03F303F40043002B0CD00F
:1018A000BB8E1B0A9BB2DBB21846FFF7A1FCBB8EB6
:1018B000DBB21846FFF79CFC0BE03B8F1B0A9BB288
:1018C000DBB21846FFF794FC3B8FDBB21846FFF7FC
:1018D0008FFC3B6901333B6197F82C301A463B691A
:1018E0009342D5D37B6901337B6197F82D301A463B
:1018F0007B699342BBD300BF00BF1C37BD46BDE828
:10190000904002B0704782B080B586B004AF3A60B4
:101910007B610346FB800B46BB802EE0FB883A7D53
:101920001344B3F5A07F13DB0023FB807B7D9AB2C9
:10193000BB881344BB80BB887A7D1344EF2B21DC2A
:101940003B681B78202B03D13B6801333B6014E0DC
:101950003B681A78B988F8883B8C0293BB8B01935B
:10196000BB6900937B69FFF75FFF3B7D9AB2FB8801
:101970001344FB803B6801333B603B681B78002BC2
:10198000CCD100E000BF00BF0837BD46BDE88040B5
:1019900002B0704780B588B004AF78600B46FB702A
:1019A0007B681868FB789AB24FF47A73029302232B
:1019B000019307F10C0300930123802102F06CFADC
:1019C0003B7B1B021AB27B7B1BB213431BB29BB245
:1019D00018461037BD4680BD80B588B004AF78602A
:1019E0000B46FB7013463B803B881B0A9BB2DBB265
:1019F0003B733B88DBB27B737B681868FB789AB2D9
:101A00004FF47A7302930223019307F10C030093BE
:101A10000123802102F046F9034618461037BD46DF
:101A200080BD80B584B000AF786002217868FFF790
:101A3000B1FF0346FB81FB89DB089BB29B009BB295
:101A400018461037BD4680BD80B584B000AF7860C1
:101A500004217868FFF79EFF0346FB81B7F90E303B
:101A600018461037BD4680BD80B584B000AF7860A1
:101A70007868FFF7E9FF03461846FFF739F9034690
:101A8000FB60054B1B681946F868FFF739FA0346F7
:101A900018461037BD4680BD10020020000000002F
:101AA00080B584B000AF786001217868FFF772FFDD
:101AB0000346FB81FB891846FEF7AEFC08A3D3E979
:101AC0000023FEF713FD02460B4610461946FEF7AB
:101AD000E5FF03469BB218461037BD4680BD00BFE8
:101AE0007B14AE47E17A843F80B584B000AFF860E4
:101AF000B9607A601B4B1B78022B19D0022B26DCB5
:101B0000002B02D0012B04D021E0164B01221A70C9
:101B100021E0B9687868FFF7FBFA0346002B03D091
:101B2000104B01221A7016E00E4B02221A7012E0BE
:101B3000B9687868FFF7ECFA0346002B03D0094B2D
:101B400001221A7007E0074B02221A7003E0054BCE
:101B500000221A7000BF034B1B7818461037BD4691
:101B600080BD00BF0C02002080B582B000AF78605D
:101B70004FF4004200217868FFF72EFF012001F0AA
:101B800087F900BF0837BD4680BD80B582B000AF81
:101B900078600B467B807B881A4605217868FFF7C2
:101BA0001BFF00BF0837BD4680BD80B582B000AFC7
:101BB00078600B467B807B881A4600217868FFF7A7
:101BC0000BFF00BF0837BD4680BD000080B584B064
:101BD00000AF786043F69F13FB810C4B4FF48052AB
:101BE0001A800B4B0B4A1A600B4B02221A80074BD0
:101BF0001B8819467868FFF7C8FFFB891946786883
:101C0000FFF7D3FF00BF1037BD4680BD0E02002096
:101C100010020020000020411402002080B584B092
:101C200000AF786040F29F13FB810C4B41F66912C4
:101C30001A800B4B0B4A1A600B4B01221A80074B80
:101C40001B8819467868FFF7A0FFFB89194678685A
:101C5000FFF7ABFF00BF1037BD4680BD0E0200206E
:101C6000100200200000A0411402002080B586B0C0
:101C700000AFF860B9601346FB711A4B00221A706E
:101C8000FB68BA681A60FB68FA791A71164B4FF054
:101C900000021A60154B00221A80FB799BB25B0090
:101CA00099B202230322B86802F05EFB0346FB757B
:101CB000FB7D002B11D10E4B00221A704FF07E528B
:101CC0004FF00001F868FFF70FFFF868FFF74CFFCF
:101CD000F868FFF77BFF012300E000231846183760
:101CE000BD4680BD0D02002010020020140200201D
:101CF0000C02002080B500AF01F098F800F08CF8DD
:101D000000F0B2F900F0E4F800F04EF900F082F9CA
:101D100000F01CF904F09EF9254A28210A2004F05D
:101D2000D7FA0346234A1360234A0021234804F0CC
:101D3000F7F90346224A1360224A0021224804F0A0
:101D4000EFF90346214A1360214A0021214804F09B
:101D5000E7F90346204A1360204A0021204804F096
:101D6000DFF903461F4A13601F4A00211F4804F091
:101D7000D7F903461E4A13601E4A00211E4804F08C
:101D8000CFF903461D4A13601D4A00211D4804F087
:101D9000C7F903461C4A13601C4A00211C4804F082
:101DA000BFF903461B4A136004F086F9FEE700BF43
:101DB00088E80008941B002068E700082921000833
:101DC0003C0300208CE70008392100089C05002016
:101DD000B0E70008D9210008CC0D0020D4E70008A6
:101DE000D92300082C100020F8E70008F12400088F
:101DF0008C1200201CE80008692500082C1900201E
:101E000040E80008D12600088C1B002064E8000888
:101E100069270008901B002080B594B000AF07F13F
:101E2000280328220021184607F0C0F807F1140300
:101E300000221A605A609A60DA601A613B1D002223
:101E40001A605A609A60DA600123BB624FF48033F3
:101E5000FB6200233B630123BB6302237B644FF4DB
:101E60008033BB644FF4E013FB6407F1280318468A
:101E700002F05CFF0346002B01D000F0C1FC0F23F1
:101E80007B610223BB610023FB614FF480633B62F3
:101E900000237B6207F114030221184603F0C8F9FE
:101EA0000346002B01D000F0ABFC02237B604FF413
:101EB0000043FB603B1D184603F078FB0346002BF4
:101EC00001D000F09DFC00BF5037BD4680BD000032
:101ED00080B584B000AF3B1D00221A605A609A6042
:101EE000184B194A1A60174B00229A60154B0122B1
:101EF0001A73144B00221A75124B4FF46022DA61E8
:101F0000104B00225A600F4B01221A610D4800F05D
:101F1000E3FF0346002B01D000F072FC01237B603D
:101F20000123BB600023FB603B1D1946054801F0FF
:101F300065F90346002B01D000F062FC00BF1037AA
:101F4000BD4680BD180200200024014080B500AFCE
:101F5000124B134A1A60114B124A5A600F4B00225F
:101F60009A600E4B0022DA600C4B4FF480421A61EB
:101F70000A4B00225A61094B00229A61074B00224A
:101F8000DA61064B00221A62044801F047FD03465D
:101F9000002B01D000F034FC00BF80BD48020020BF
:101FA00000540040A086010080B500AF174B184ACE
:101FB0001A60164B4FF482725A60144B00229A60DA
:101FC000124B0022DA60114B00221A610F4B0022E3
:101FD0005A610E4B4FF400729A610C4B0822DA6181
:101FE0000A4B00221A62094B00225A62074B002258
:101FF0009A62064B0A22DA62044803F08DFB03461C
:10200000002B01D000F0FCFB00BF80BD9C02002033
:102010000030014080B500AF114B124A1A60104BDE
:102020004FF4E1325A600E4B00229A600C4B0022B2
:10203000DA600B4B00221A61094B0C225A61084BE3
:1020400000229A61064B0022DA61054803F032FE55
:102050000346002B01D000F0D3FB00BF80BD00BFC2
:10206000F40200200038014080B588B000AF07F1CD
:10207000100300221A605A609A60DA60274B9B694D
:10208000264A43F020039361244B9B6903F020030D
:10209000FB60FB68214B9B69204A43F0040393617A
:1020A0001E4B9B6903F00403BB60BB681B4B9B6921
:1020B0001A4A43F008039361184B9B6903F0080325
:1020C0007B607B6800221021154801F08FFC002204
:1020D00040F60341134801F089FC10233B610123C2
:1020E0007B610023BB610223FB6107F110031946EA
:1020F0000B4801F0F7FA40F603433B6101237B6193
:102100000023BB610223FB6107F110031946054858
:1021100001F0E8FA00BF2037BD4680BD0010024044
:1021200000080140000C014080B582B000AF78602B
:10213000012004F09FF8FBE780B590B000AF786015
:102140004FF00003FB631E4800F09EFF1C4801F0A7
:1021500049F803461846FEF7C7FD034619491846D5
:10216000FEF71AFE034618491846FEF7C9FE034655
:10217000FB63F86BFEF762F902460B4607F10C00B1
:10218000124907F08DFD07F10C0207F11403114607
:10219000184607F0A5FD07F114031E330C4A10681A
:1021A00018600C4B186807F114014FF0FF33002240
:1021B00004F014F94FF4967004F05CF8C3E700BF24
:1021C000180200203333534000F07F45A0D80008A8
:1021D000A8D80008941B0020B0B5A0B000AF78606C
:1021E000724B07F148040FCB07C42370704B07F103
:1021F00034041D460FCD0FC42B6823706D4B07F1BF
:1022000020041D460FCD0FC42B6823606A4B07F1D5
:1022100008041D460FCD0FC495E803002060043468
:102220002170664B186807F158014FF0FF33002208
:1022300004F048F907F158031E3361491846FDF7C9
:1022400087FF0346002B23D107F148031846FDF70B
:1022500089FF03469AB207F148014FF0FF3359480E
:1022600003F078FD07F158031846FDF77BFF03469E
:102270009AB207F158014FF0FF33524803F06AFD5C
:102280004FF0FF33022250494E4803F063FD88E0CF
:1022900007F158031E334D491846FDF759FF034611
:1022A000002B23D107F134031846FDF75BFF0346EB
:1022B0009AB207F134014FF0FF33424803F04AFD70
:1022C00007F158031846FDF74DFF03469AB207F190
:1022D00058014FF0FF333B4803F03CFD4FF0FF3314
:1022E00002223949374803F035FD5AE007F1580317
:1022F0001E3337491846FDF72BFF0346002B23D129
:1023000007F120031846FDF72DFF03469AB207F1A7
:1023100020014FF0FF332B4803F01CFD07F1580359
:102320001846FDF71FFF03469AB207F158014FF018
:10233000FF33244803F00EFD4FF0FF330222224901
:10234000204803F007FD2CE007F158031E33214914
:102350001846FDF7FDFE0346002B22D107F10803C6
:102360001846FDF7FFFE03469AB207F108014FF049
:10237000FF33144803F0EEFC07F158031846FDF74D
:10238000F1FE03469AB207F158014FF0FF330D48B2
:1023900003F0E0FC4FF0FF3302220B49094803F041
:1023A000D9FC4FF4FA7003F065FF3AE7C8D800088B
:1023B000D8D80008ECD8000800D90008941B0020E9
:1023C000A8D80008F4020020ACD80008B0D8000853
:1023D000B8D80008C0D8000880B590B004AF7860C5
:1023E0003D4B186807F108010A23002204F06AF83F
:1023F00007F108031E3339491846FDF7A9FE0346C5
:10240000002B11D1364B07F1080142F665120292FA
:102410004FF6FF7201925A6800921B680A46242107
:102420000020FFF770FA52E007F108031E332D4930
:102430001846FDF78DFE0346002B11D1284B07F1FE
:10244000080142F6651202924FF6FF7201925A6835
:1024500000921B680A4636219620FFF754FA36E0B0
:1024600007F108031E3320491846FDF771FE0346A5
:10247000002B11D11A4B07F1080142F665120292A6
:102480004FF6FF7201925A6800921B680A46482173
:102490009620FFF738FA1AE007F108031E331349B4
:1024A0001846FDF755FE0346002B10D10C4B07F1E3
:1024B000080142F6651202924FF6FF7201925A68C5
:1024C00000921B680A465A219620FFF71CFA6420E6
:1024D00003F0D0FE84E700BF941B0020A8D80008BA
:1024E00004000020B0D80008B8D80008C0D8000800
:1024F00080B5A6B000AF78601748FFF7B5FAC7F807
:102500009400D7F89400FDF799FF02460B4607F1B7
:102510000800124907F0C4FB07F16C031E33104991
:102520001A460B4603CB1060516007F1080207F111
:102530006C031146184607F0D3FB0A4B186807F1E5
:102540006C014FF0FF33002203F048FF4FF4967008
:1025500003F090FED0E700BF781D002018D90008D6
:10256000C0D80008941B002080B5A0B004AF7860EC
:102570004A4B1B681A68494B1B6842F040021A60BC
:10258000FEF7D0FF0320FEF75FFF42F66510FFF76E
:1025900025F9434B42F6651202924FF6FF72019203
:1025A0005A6800921B683F4A00210020FFF7ABF9F0
:1025B0003B4B42F6651202924FF6FF7201925A6847
:1025C00000921B68384A12210020FFF79CF9344B17
:1025D00042F6651202924FF6FF7201925A6800921B
:1025E0001B68324A24213C20FFF78DF92C4B42F620
:1025F000651202924FF6FF7201925A6800921B68B0
:102600002B4A36210020FFF77EF9254B42F6651252
:1026100002924FF6FF7201925A6800921B68254A97
:1026200048210020FFF76FF91D4B42F66512029218
:102630004FF6FF7201925A6800921B681E4A5A2197
:102640000020FFF760F9642000F022FC00BF402268
:102650001A491B48FFF70AFB0346002BF7D007F186
:102660000C031849184607F01BFB07F10C0318462A
:10267000FDF778FD03469AB207F10C016423124876
:1026800003F068FB0E48FFF7C9FA012003F0F2FDE2
:102690000E4B1B68184604F0D7FF69E79C02002028
:1026A0000400002020D9000830D9000848D90008CB
:1026B0004CD9000858D9000864D900084802002005
:1026C000781D002074D90008F40200202C19002085
:1026D00080B5A6B000AF78601E48FFF7A2F90346A8
:1026E0001846FDF799FE4FF000021B4BFEF728F845
:1026F00002460B4610461946FEF7F0F90346C7F8A6
:102700009430D7F89400FDF799FE02460B4607F186
:102710000800124907F0C4FA07F16C031E33104A8F
:102720001068186012791A7107F1080207F16C033A
:102730001146184607F0D4FA0A4B186807F16C01E5
:102740004FF0FF33002203F049FE462003F092FDD4
:10275000C2E700BF781D002000408F4018D9000854
:10276000B0D80008941B002080B5A6B000AF7860F8
:102770001648FFF795F90346A7F89630B7F8962064
:1027800007F108031249184607F08AFA07F16C03AB
:102790001E33104A106818609188927999809A7156
:1027A00007F1080207F16C031146184607F098FA82
:1027B000094B186807F16C014FF0FF33002203F05A
:1027C0000DFE4FF4967003F055FDD1E7781D002003
:1027D000A0D90008B8D80008941B002080B582B0AA
:1027E00000AF78607B681B68044A934201D100F017
:1027F00033FB00BF0837BD4680BD00BF0008004066
:1028000080B400AF72B600BFFEE7000080B584B0B0
:1028100000AF184B9B69174A43F001039361154BB6
:102820009B6903F00103BB60BB68124BDB69114A73
:1028300043F08053D3610F4BDB6903F080537B601F
:102840007B6800220F216FF0010000F020FF0A4B8F
:102850005B68FB60FB6823F0E063FB60FB6843F0B0
:102860000073FB60044AFB68536000BF1037BD462D
:1028700080BD00BF001002400000014080B588B05C
:1028800000AF786007F1100300221A605A609A6066
:10289000DA607B681B68144A934221D1134B9B6911
:1028A000124A43F400739361104B9B6903F4007365
:1028B000FB60FB680D4B9B690C4A43F0040393617A
:1028C0000A4B9B6903F00403BB60BB6802233B61B6
:1028D00003237B6107F110031946054800F002FF4E
:1028E00000BF2037BD4680BD0024014000100240DB
:1028F0000008014080B588B000AF786007F1100390
:1029000000221A605A609A60DA607B681B68154A78
:10291000934223D1144B9B69134A43F008039361FC
:10292000114B9B6903F00803FB60FB68C0233B610C
:1029300012237B610323FB6107F1100319460B4847
:1029400000F0D0FE084BDB69074A43F40013D36163
:10295000054BDB6903F40013BB60BB6800BF203785
:10296000BD4680BD0054004000100240000C0140F4
:1029700080B588B000AF786007F1100300221A60BC
:102980005A609A60DA607B681B681B4A93422FD1B9
:102990001A4B9B69194A43F480539361174B9B6907
:1029A00003F48053FB60FB68144B9B69134A43F0AC
:1029B00004039361114B9B6903F00403BB60BB6884
:1029C000A0233B6102237B610323FB6107F110031A
:1029D00019460B4800F086FE40233B6100237B61D3
:1029E0000023BB6107F110031946054800F07AFE89
:1029F00000BF2037BD4680BD0030014000100240BE
:102A00000008014080B588B000AF786007F110037E
:102A100000221A605A609A60DA607B681B681C4A60
:102A2000934231D11B4B9B691A4A43F48043936113
:102A3000184B9B6903F48043FB60FB68154B9B6953
:102A4000144A43F004039361124B9B6903F004039F
:102A5000BB60BB684FF400733B6102237B610323BF
:102A6000FB6107F1100319460B4800F03BFE4FF4E1
:102A700080633B6100237B610023BB6107F110038E
:102A80001946054800F02EFE00BF2037BD4680BD28
:102A900000380140001002400008014080B58EB0AF
:102AA00000AF78600023FB620023BB62002387F83D
:102AB0003330344BDB69334A43F00403D361314B89
:102AC000DB6903F00403FB60FB6807F1100207F108
:102AD00014031146184602F01BFD3B6AFB62FB6AB9
:102AE000002B03D102F0ECFC786304E002F0E8FC78
:102AF00003465B007B637B6B234AA2FB03239B0C97
:102B0000013BBB62214B224A1A60204B40F2E73264
:102B1000DA601E4ABB6A53601C4B00221A611B4BD1
:102B200000229A60194B00229A61184802F078FE40
:102B3000034687F8333097F83330002B1BD1134806
:102B400002F0C6FE034687F8333097F83330002B87
:102B500011D11E2000F0B7FD7B680F2B08D8002292
:102B600079681E2000F093FD0A4A7B68136002E03A
:102B7000012387F8333097F8333018463837BD468D
:102B800080BD00BF0010024083DE1B43801D00207B
:102B9000000800401000002080B584B004AF084B4E
:102BA00042F6651202924FF6FF7201925A68009245
:102BB0001B68044A36210020FEF7A5FEFEE700BF91
:102BC00004000020A4D9000880B584B004AF084BED
:102BD00042F6651202924FF6FF7201925A68009215
:102BE0001B68044A36210020FEF78DFEEFE700BF88
:102BF00004000020BCD9000880B584B004AF084BA5
:102C000042F6651202924FF6FF7201925A680092E4
:102C10001B68044A36210020FEF775FEFEE700BF60
:102C200004000020D8D9000880B400AFFEE780B4CB
:102C300000AFFEE780B400AF00BFBD4680BC704768
:102C400080B500AF024802F095FE00BF80BD00BF16
:102C5000801D002080B400AF01231846BD4680BC13
:102C6000704780B582B000AF7860396006F066F9D1
:102C7000034616221A604FF0FF3318460837BD4648
:102C800080BD80B582B000AF78604FF0FF317868CA
:102C9000FFF7E7FFFEE780B586B000AFF860B960E8
:102CA0007A6000237B610AE0AFF300800146BB68D5
:102CB0005A1CBA60CAB21A707B6901337B617A69A7
:102CC0007B689A42F0DB7B6818461837BD4680BDAA
:102CD00080B586B000AFF860B9607A6000237B6190
:102CE00009E0BB685A1CBA601B781846AFF3008035
:102CF0007B6901337B617A697B689A42F1DB7B688F
:102D000018461837BD4680BD80B483B000AF7860E8
:102D10004FF0FF3318460C37BD4680BC704780B477
:102D200083B000AF786039603B684FF400525A605E
:102D3000002318460C37BD4680BC704780B483B072
:102D400000AF7860012318460C37BD4680BC704741
:102D500080B485B000AFF860B9607A60002318468F
:102D60001437BD4680BC704780B586B000AF786030
:102D7000144A154BD31A7B617B693B61134B1B686B
:102D8000002B02D1114B124A1A60104B1A687B6853
:102D900013443A699A4207D206F0D0F803460C224F
:102DA0001A604FF0FF3309E0084B1B68FB60074BCC
:102DB0001A687B681344054A1360FB681846183785
:102DC000BD4680BD0050002000040000C81D00204A
:102DD0002837002080B400AF00BFBD4680BC7047DC
:102DE000FFF7F8FF0B480C490C4A002302E0D458C7
:102DF000C4500433C4188C42F9D3094A094C002347
:102E000001E013600432A242FBD306F09DF8FEF706
:102E100071FF704700000020F00100207CED0008E9
:102E2000F001002028370020FEE7000080B500AF49
:102E3000084B1B68074A43F010031360032000F09F
:102E40001BFC0F20FFF72AFEFFF7E0FC00231846CB
:102E500080BD00BF0020024080B400AF054B1B784E
:102E60001A46054B1B681344034A136000BFBD4656
:102E700080BC704714000020CC1D002080B400AF3F
:102E8000024B1B681846BD4680BC7047CC1D002015
:102E900080B584B000AF7860FFF7F0FFB8607B6862
:102EA000FB60FB68B3F1FF3F05D00A4B1B781A4665
:102EB000FB681344FB6000BFFFF7E0FF0246BB68FE
:102EC000D31AFA689A42F7D800BF00BF1037BD4640
:102ED00080BD00BF1400002080B586B000AF7860D0
:102EE0000023FB7500233B610023BB600023FB60D4
:102EF0007B68002B01D10123BEE07B689B68002B1F
:102F00007B689B6A002B09D17B680022DA627B68B0
:102F1000002283F824207868FFF7B0FC786800F07E
:102F2000BFFA0346FB757B689B6A03F01003002B16
:102F300040F09980FB7D002B40F095807B689B6A78
:102F400023F4885323F0020343F002027B689A6261
:102F50007B685A687B68DB691A437B681B7B5B0074
:102F60001343BA681343BB607B689B68B3F5807FEB
:102F700003D07B689B68012B02D14FF4807300E083
:102F800000233A6913433B617B681B7D012B19D1F8
:102F90007B681B7B002B09D17B689B69013B5A0333
:102FA0003B69134343F400633B610BE07B689B6A1E
:102FB00043F020027B689A627B68DB6A43F001027F
:102FC0007B68DA627B681B685B6823F469417B6815
:102FD0001B683A690A435A607B681B689A68284BE9
:102FE00013407A681268B9680B4393607B689B68EA
:102FF000B3F5807F03D07B689B68012B04D17B688D
:103000001B69013B1B05FB607B681B68DB6A23F4C3
:1030100070017B681B68FA680A43DA627B681B6888
:103020009A68184B1340BA689A420BD17B68002209
:10303000DA627B689B6A23F0030343F001027B683A
:103040009A6218E07B689B6A23F0120343F0100237
:103050007B689A627B68DB6A43F001027B68DA6214
:103060000123FB7507E07B689B6A43F010027B68D5
:103070009A620123FB75FB7D18461837BD4680BD5B
:10308000FDF7E1FFFE0E1FFF80B584B000AF786052
:103090000023FB737B6893F82430012B01D10223BA
:1030A00098E07B68012283F82420786800F09EF97C
:1030B0000346FB73FB7B002B40F087807B689B6A99
:1030C00023F4407323F0010343F480727B689A6217
:1030D0007B681B68414A934205D1414B5B6803F40E
:1030E0007023002B15D17B689B6A23F480127B68C8
:1030F0009A627B681B685B6803F48063002B26D0B0
:103100007B689B6A23F4405343F480527B689A6245
:103110001DE07B689B6A43F480127B689A627B683F
:103120001B682F4A934204D07B681B682B4A93424A
:103130000DD12B4B5B6803F48063002B07D07B68B9
:103140009B6A23F4405343F480527B689A627B6805
:103150009B6A03F48053002B06D07B68DB6A23F064
:1031600006027B68DA6202E07B680022DA627B6832
:10317000002283F824207B681B686FF002021A602B
:103180007B681B689B6803F46023B3F5602F13D141
:103190007B681B68114A934205D1114B5B6803F4AD
:1031A0007023002B08D17B681B689A687B681B68BA
:1031B00042F4A0029A600CE07B681B689A687B6806
:1031C0001B6842F480129A6003E07B68002283F857
:1031D0002420FB7B18461037BD4680BD00280140E7
:1031E0000024014080B483B000AF78607B681B6826
:1031F000DB6C18460C37BD4680BC704780B485B088
:1032000000AF786039600023FB730023BB607B68EC
:1032100093F82430012B01D10223DCE07B680122EA
:1032200083F824203B685B68062B1CD87B681B68EE
:10323000596B3B685A6813469B001344053B1F2299
:1032400002FA03F3DB4319403B6818683B685A688D
:1032500013469B001344053B00FA03F27B681B688E
:103260000A435A633CE03B685B680C2B1CD87B68C4
:103270001B68196B3B685A6813469B001344233B39
:103280001F2202FA03F3DB4319403B6818683B68CE
:103290005A6813469B001344233B00FA03F27B68F1
:1032A0001B680A431A631BE07B681B68D96A3B688A
:1032B0005A6813469B001344413B1F2202FA03F352
:1032C000DB4319403B6818683B685A6813469B000B
:1032D0001344413B00FA03F27B681B680A43DA623D
:1032E0003B681B68092B1CD97B681B68D9683B6845
:1032F0001A6813465B0013441E3B072202FA03F3CD
:10330000DB4319403B6898683B681A6813465B00CA
:1033100013441E3B00FA03F27B681B680A43DA6021
:1033200019E07B681B6819693B681A6813465B00E3
:103330001344072202FA03F3DB4319403B68986801
:103340003B681A6813465B00134400FA03F27B687B
:103350001B680A431A613B681B68102B03D03B684B
:103360001B68112B32D17B681B681D4A934225D103
:103370007B681B689B6803F40003002B26D17B68E5
:103380001B689A687B681B6842F400029A603B687D
:103390001B68102B1AD1134B1B68134AA2FB032383
:1033A0009A0C13469B0013445B00BB6002E0BB68B1
:1033B000013BBB60BB68002BF9D107E07B689B6ACF
:1033C00043F020027B689A620123FB737B68002232
:1033D00083F82420FB7B18461437BD4680BC704719
:1033E000002401400C00002083DE1B4380B584B024
:1033F00000AF78600023FB600023BB607B681B6824
:103400009B6803F00103012B40D07B681B689A681E
:103410007B681B6842F001029A601F4B1B681F4AC1
:10342000A2FB03239B0CBB6002E0BB68013BBB60BB
:10343000BB68002BF9D1FFF721FDF8601FE0FFF713
:103440001DFD0246FB68D31A022B18D97B681B6846
:103450009B6803F00103012B11D07B689B6A43F04A
:1034600010027B689A627B68DB6A43F001027B682A
:10347000DA627B68002283F82420012307E07B685E
:103480001B689B6803F00103012BD8D10023184669
:103490001037BD4680BD00BF0C00002083DE1B43FB
:1034A00080B584B000AF78600023FB607B681B6848
:1034B0009B6803F00103012B2ED17B681B689A687F
:1034C0007B681B6822F001029A60FFF7D7FCF86066
:1034D0001BE0FFF7D3FC0246FB68D31A022B14D97A
:1034E0007B681B689B6803F00103012B0DD17B688F
:1034F0009B6A43F010027B689A627B68DB6A43F048
:1035000001027B68DA62012307E07B681B689B6825
:1035100003F00103012BDCD0002318461037BD4611
:1035200080BD000080B485B000AF78607B6803F098
:103530000703FB600C4BDB68BB60BA684FF6FF0308
:103540001340BB60FB681A02BB68134343F0BF63C0
:1035500043F40033BB60044ABB68D36000BF143738
:10356000BD4680BC704700BF00ED00E080B400AFF6
:10357000044BDB681B0A03F007031846BD4680BCFA
:10358000704700BF00ED00E080B483B000AF034699
:10359000FB7197F90730002B0BDBFB7903F01F025F
:1035A000064997F907305B09012000FA02F241F859
:1035B000232000BF0C37BD4680BC704700E100E00F
:1035C00080B483B000AF03463960FB7197F90730D0
:1035D000002B0ADB3B68DAB20C4997F9073012017D
:1035E000D2B20B4483F800230AE03B68DAB2084900
:1035F000FB7903F00F03043B1201D2B20B441A769D
:1036000000BF0C37BD4680BC704700BF00E100E042
:1036100000ED00E080B489B000AFF860B9607A6076
:10362000FB6803F00703FB61FB69C3F10703042B8D
:1036300028BF0423BB61FB690433062B02D9FB6955
:10364000033B00E000237B614FF0FF32BB6902FACD
:1036500003F3DA43BB681A407B699A404FF0FF31AD
:103660007B6901FA03F3D9437B680B401343184687
:103670002437BD4680BC704780B582B000AF78600B
:103680007868FFF74FFF00BF0837BD4680BD80B5A3
:1036900086B000AF0346B9607A60FB7300237B619C
:1036A000FFF764FF78617A68B9687869FFF7B2FF5D
:1036B000024697F90F3011461846FFF781FF00BF09
:1036C0001837BD4680BD80B582B000AF0346FB71A0
:1036D00097F907301846FFF757FF00BF0837BD4678
:1036E00080BD000080B48BB000AF786039600023EB
:1036F0007B6200233B6269E101227B6A02FA03F3E9
:10370000FB613B681B68FA691340BB61BA69FB69DE
:103710009A4240F058813B685B689A4A93425ED077
:10372000984A934275D8984A934258D0964A934201
:103730006FD8964A934252D0944A934269D8944A99
:1037400093424CD0924A934263D8924A934246D0D5
:10375000904A93425DD8122B2AD8122B59D801A235
:1037600052F823F0DF370008B9370008CB370008DC
:103770000D38000813380008133800081338000803
:1037800013380008133800081338000813380008ED
:1037900013380008133800081338000813380008DD
:1037A0001338000813380008C1370008D53700085F
:1037B000794A934213D02CE03B68DB683B6229E0F6
:1037C0003B68DB6804333B6224E03B68DB6808331A
:1037D0003B621FE03B68DB680C333B621AE03B68EE
:1037E0009B68002B02D104233B6213E03B689B687B
:1037F000012B05D108233B627B68FA691A6109E055
:1038000008233B627B68FA695A6103E000233B624C
:1038100000E000BFBB69FF2B01D87B6801E07B683B
:1038200004337B61BB69FF2B02D87B6A9B0002E0FB
:103830007B6A083B9B003B617B691A680F213B69EF
:1038400001FA03F3DB431A40396A3B6901FA03F3D7
:103850001A437B691A603B685B6803F08053002B56
:1038600000F0B1804D4B9B694C4A43F001039361DA
:103870004A4B9B6903F00103BB60BB68484A7B6A03
:103880009B08023352F82330FB607B6A03F003038A
:103890009B000F2202FA03F3DB43FA681340FB603C
:1038A0007B68404A934213D07B683F4A93420DD0D5
:1038B0007B683E4A934207D07B683D4A934201D1E0
:1038C000032306E0042304E0022302E0012300E0D6
:1038D00000237A6A02F0030292009340FA681343CD
:1038E000FB602F497B6A9B080233FA6841F823206A
:1038F0003B685B6803F48013002B06D02D4B9A685D
:103900002C49BB6913438B6006E02A4B9A68BB695C
:10391000DB43284913408B603B685B6803F400136A
:10392000002B06D0234BDA682249BB691343CB60D6
:1039300006E0204BDA68BB69DB431E491340CB60CD
:103940003B685B6803F40033002B06D0194B5A68C0
:103950001849BB6913434B6006E0164B5A68BB69B4
:10396000DB43144913404B603B685B6803F48033CE
:10397000002B21D00F4B1A680E49BB6913430B6013
:1039800021E000BF000032100000311000002210C2
:103990000000211000001210000011100010024061
:1039A0000000014000080140000C014000100140EF
:1039B00000140140000401400B4B1A68BB69DB4353
:1039C000094913400B607B6A01337B623B681A68CC
:1039D0007B6A22FA03F3002B7FF48EAE00BF00BF98
:1039E0002C37BD4680BC70470004014080B483B0D2
:1039F00000AF78600B467B8013467B707B78002B92
:103A000003D07A887B681A6103E07B881A047B689C
:103A10001A6100BF0C37BD4680BC704780B584B0CA
:103A200000AF78607B68002B01D101232BE17B681C
:103A300093F83D30DBB2002B06D17B68002283F87F
:103A40003C207868FEF756FF7B68242283F83D20EF
:103A50007B681B681A687B681B6822F001021A6089
:103A60007B681B681A687B681B6842F400421A6016
:103A70007B681B681A687B681B6822F400421A6026
:103A800001F01EFDF8607B685B68814A934207D8AD
:103A9000FB68804A934294BF01230023DBB206E017
:103AA000FB687D4A934294BF01230023DBB2002BC5
:103AB00001D00123E7E0FB68784AA2FB03239B0CBB
:103AC000BB607B681B685B6823F03F017B681B68F9
:103AD000BA680A435A607B681B681B6A23F03F017F
:103AE0007B685B686A4A934202D8BB68013309E08D
:103AF000BB684FF4967202FB03F3694AA2FB0323EF
:103B00009B0901337A6812680B4313627B681B6858
:103B1000DB6923F44F4222F0FF027B685B685C495B
:103B20008B4219D8FB68591E7B685B685B00B1FB50
:103B3000F3F3591C40F6FC730B40002B0AD0FB68D2
:103B4000591E7B685B685B00B1FBF3F30133C3F381
:103B50000B0351E004234FE07B689B68002B11D1DD
:103B6000FB68581E7B6859680B465B000B44B0FB32
:103B7000F3F30133C3F30B03002B0CBF012300232A
:103B8000DBB212E0FB68581E7B6859680B469B004D
:103B90000B4499000B44B0FBF3F30133C3F30B0365
:103BA000002B0CBF01230023DBB2002B01D001232B
:103BB00022E07B689B68002B0ED1FB68581E7B6857
:103BC00059680B465B000B44B0FBF3F30133C3F3BE
:103BD0000B0343F400430FE0FB68581E7B685968F1
:103BE0000B469B000B4499000B44B0FBF3F30133ED
:103BF000C3F30B0343F44043796809681343CB6173
:103C00007B681B681B6823F0C0017B68DA697B68EE
:103C10001B6A1A437B681B680A431A607B681B682F
:103C20009B6823F4034323F0FF037A6811697A68E1
:103C3000D26811437A6812680B4393607B681B68F3
:103C4000DB6823F0FF017B685A697B689B691A4334
:103C50007B681B680A43DA607B681B681A687B68AC
:103C60001B6842F001021A607B6800221A647B68BC
:103C7000202283F83D207B6800221A637B680022A3
:103C800083F83E20002318461037BD4680BD00BF94
:103C9000A08601007F841E00FF083D0083DE1B43D9
:103CA000D34D621080B588B002AFF8600846114667
:103CB0001A4603467B810B463B811346FB80FFF788
:103CC000DDF87861FB6893F83D30DBB2202B40F0E3
:103CD000D9807B690093192301226D49F86800F0AF
:103CE000EFFD0346002B01D00223CCE0FB6893F8E4
:103CF0003C30012B01D10223C5E0FB68012283F88F
:103D00003C20FB681B681B6803F00103012B07D0F4
:103D1000FB681B681A68FB681B6842F001021A60A6
:103D2000FB681B681A68FB681B6822F400621A6053
:103D3000FB68212283F83D20FB68402283F83E2067
:103D4000FB6800221A64FB683A6A5A62FB68BA8C04
:103D50005A85FB685B8D9AB2FB681A85FB684D4AF1
:103D6000DA62F8883A8979897B690193BB6A0093A2
:103D70000346F86800F026FC0346002B52D00123CE
:103D800081E07A69B96AF86800F0B4FE0346002B56
:103D90000DD0FB681B6C042B07D1FB681B681A68ED
:103DA000FB681B6842F400721A6001236BE0FB6839
:103DB0005B6A1A78FB681B681A61FB685B6A5A1CAD
:103DC000FB685A62FB681B8D013B9AB2FB681A853F
:103DD000FB685B8D9BB2013B9AB2FB685A85FB681E
:103DE0001B685B6903F00403042B1BD1FB681B8D6C
:103DF000002B17D0FB685B6A1A78FB681B681A6196
:103E0000FB685B6A5A1CFB685A62FB681B8D013BAE
:103E10009AB2FB681A85FB685B8D9BB2013B9AB234
:103E2000FB685A85FB681B8D002BAAD17A69B96A99
:103E3000F86800F0A7FE0346002B0DD0FB681B6C52
:103E4000042B07D1FB681B681A68FB681B6842F4E7
:103E500000721A60012316E0FB681B681A68FB6891
:103E60001B6842F400721A60FB68202283F83D2030
:103E7000FB68002283F83E20FB68002283F83C2088
:103E8000002300E0022318461837BD4680BD00BF5E
:103E9000020010000000FFFF80B58CB002AFF86098
:103EA000084611461A4603467B810B463B81134662
:103EB000FB8000233B62FEF7E1FF7862FB6893F82A
:103EC0003D30DBB2202B40F044827B6A0093192303
:103ED00001228249F86800F0F3FC0346002B01D070
:103EE000022337E2FB6893F83C30012B01D1022317
:103EF00030E2FB68012283F83C20FB681B681B68EA
:103F000003F00103012B07D0FB681B681A68FB68EC
:103F10001B6842F001021A60FB681B681A68FB68A4
:103F20001B6822F400621A60FB68222283F83D209D
:103F3000FB68402283F83E20FB6800221A64FB687D
:103F40003A6B5A62FB68BA8E5A85FB685B8D9AB2EF
:103F5000FB681A85FB68624ADA62F8883A897989CF
:103F60007B6A0193BB6B00930346F86800F0C0FBCB
:103F70000346002B01D00123ECE1FB681B8D002BD5
:103F800013D10023FB61FB681B685B69FB61FB6865
:103F90001B689B69FB61FB69FB681B681A68FB680F
:103FA0001B6842F400721A60C0E1FB681B8D012B94
:103FB0001ED1FB681B681A68FB681B6822F48062CC
:103FC0001A6072B600BF0023BB61FB681B685B69A7
:103FD000BB61FB681B689B69BB61BB69FB681B68B5
:103FE0001A68FB681B6842F400721A6062B635E01A
:103FF000FB681B8D022B1ED1FB681B681A68FB68CF
:104000001B6842F400621A6072B600BF00237B6135
:10401000FB681B685B697B61FB681B689B697B6154
:104020007B69FB681B681A68FB681B6822F4806266
:104030001A6062B612E0FB681B681A68FB681B68AE
:1040400042F480621A6000233B61FB681B685B6975
:104050003B61FB681B689B693B613B6966E1FB68F0
:104060001B8D032B00F21F81FB681B8D012B23D1BD
:104070007A6AB96BF86800F0CDFD0346002B01D0D9
:10408000012367E1FB681B681A69FB685B6AD2B2AF
:104090001A70FB685B6A5A1CFB685A62FB681B8DCE
:1040A000013B9AB2FB681A85FB685B8D9BB2013BB2
:1040B0009AB2FB685A8539E1FB681B8D022B52D1FD
:1040C0007B6A0093BB6B00220649F86800F0F8FB9E
:1040D0000346002B08D001233CE100BF0200100082
:1040E0000000FFFF0400010072B600BFFB681B6800
:1040F0001A68FB681B6842F400721A60FB681B6850
:104100001A69FB685B6AD2B21A70FB685B6A5A1C58
:10411000FB685A62FB681B8D013B9AB2FB681A85EB
:10412000FB685B8D9BB2013B9AB2FB685A8562B615
:1041300000BFFB681B681A69FB685B6AD2B21A7021
:10414000FB685B6A5A1CFB685A62FB681B8D013B6B
:104150009AB2FB681A85FB685B8D9BB2013B9AB2F1
:10416000FB685A85E2E07B6A0093BB6B00227B49C7
:10417000F86800F0A5FB0346002B01D00123E9E01D
:10418000FB681B681A68FB681B6822F480621A606F
:1041900072B600BFFB681B681A69FB685B6AD2B223
:1041A0001A70FB685B6A5A1CFB685A62FB681B8DBD
:1041B000013B9AB2FB681A85FB685B8D9BB2013BA1
:1041C0009AB2FB685A85664B1B68DB08654AA2FBFE
:1041D00003231A0A13469B001344DA00D31A3B62E6
:1041E0003B6A013B3B623B6A002B18D1FB68002213
:1041F0001A63FB68202283F83D20FB68002283F8C5
:104200003E20FB681B6C43F02002FB681A6462B618
:1042100000BFFB68002283F83C2001239AE0FB6882
:104220001B685B6903F00403042BD9D1FB681B688E
:104230001A68FB681B6842F400721A60FB681B680E
:104240001A69FB685B6AD2B21A70FB685B6A5A1C17
:10425000FB685A62FB681B8D013B9AB2FB681A85AA
:10426000FB685B8D9BB2013B9AB2FB685A8562B6D4
:1042700000BFFB681B681A69FB685B6AD2B21A70E0
:10428000FB685B6A5A1CFB685A62FB681B8D013B2A
:104290009AB2FB681A85FB685B8D9BB2013B9AB2B0
:1042A000FB685A8542E07A6AB96BF86800F0B2FCA4
:1042B0000346002B01D001234CE0FB681B681A6900
:1042C000FB685B6AD2B21A70FB685B6A5A1CFB68B7
:1042D0005A62FB681B8D013B9AB2FB681A85FB682A
:1042E0005B8D9BB2013B9AB2FB685A85FB681B68E9
:1042F0005B6903F00403042B18D1FB681B681A697F
:10430000FB685B6AD2B21A70FB685B6A5A1CFB6876
:104310005A62FB681B8D013B9AB2FB681A85FB68E9
:104320005B8D9BB2013B9AB2FB685A85FB681B8D83
:10433000002B7FF494AEFB68202283F83D20FB68BD
:10434000002283F83E20FB68002283F83C200023F3
:1043500000E0022318462837BD4680BD0400010056
:104360000C00002089B5F81480B58AB002AFF8605F
:104370007A603B600B467B81FEF780FDF86100238D
:10438000BB61FB6893F83D30DBB2202B40F011811C
:10439000FB690093192301228849F86800F090FA1C
:1043A0000346002B01D0022304E1FB6893F83C3064
:1043B000012B01D10223FDE0FB68012283F83C20A0
:1043C000FB681B681B6803F00103012B07D0FB6827
:1043D0001B681A68FB681B6842F001021A60FB68E0
:1043E0001B681A68FB681B6822F400621A60FB688D
:1043F000242283F83D20FB6800221A64FB68704A7F
:10440000DA62FB681B681A68FB681B6842F48072FA
:104410001A60FB6900933B6800224FF00111F868B5
:1044200000F04EFA0346002B0DD0FB681B681B689A
:1044300003F48073B3F5807F03D1FB684FF40072FF
:104440001A640323B6E07B89DBB21A46FB681B685B
:1044500002F0FE021A61FEF711FDF861FB681B68AD
:104460005B6903F00203022B0CBF01230023DBB2C4
:10447000FB75FB681B685B6903F48063B3F5806FB1
:104480000CBF01230023DBB2BB7525E0FEF7F6FC71
:104490000246FB69D31A3A689A4202D33B68002B62
:1044A00003D1FB68A02283F83D20FB681B685B6991
:1044B00003F00203022B0CBF01230023DBB2FB75C8
:1044C000FB681B685B6903F48063B3F5806F0CBF06
:1044D00001230023DBB2BB75FB6893F83D30DBB2F0
:1044E000A02B05D0FB7D002B02D1BB7D002BCDD0B6
:1044F000FB68202283F83D20FB681B685B6903F0A2
:104500000203022B29D1FB681B681A68FB681B6831
:1045100042F400721A6000233B61FB681B685B6910
:104520003B61FB681B689B693B613B69FB690093CE
:10453000192301222149F86800F0C2F90346002B33
:1045400001D0012336E0FB68202283F83D20FB6880
:10455000002283F83C2000232CE0FB681B681A68CB
:10456000FB681B6842F400721A60FB681B686FF4FA
:1045700080625A61FB690093192301220F49F86890
:1045800000F09EF90346002B01D0012312E0BB6925
:104590000133BB61BA697B689A42FFF432AFFB68B2
:1045A000202283F83D20FB68002283F83C20012371
:1045B00000E0022318462037BD4680BD02001000EF
:1045C0000000FFFF80B588B002AFF86008461146D2
:1045D0001A4603467B810B463B811346FB80FB68F2
:1045E0001B681A68FB681B6842F480721A607B6A59
:1045F00000933B6A00224FF00111F86800F060F967
:104600000346002B0DD0FB681B681B6803F4807306
:10461000B3F5807F03D1FB684FF400721A64032363
:104620005FE07B89DBB21A46FB681B6802F0FE0282
:104630001A617B6A3A6A2D49F86800F0BBF90346B3
:10464000002B01D001234CE000237B61FB681B6839
:104650005B697B61FB681B689B697B617B697A6A2C
:10466000396AF86800F046FA0346002B0DD0FB6863
:104670001B6C042B07D1FB681B681A68FB681B685E
:1046800042F400721A6001232BE0FB88012B05D154
:104690003B89DAB2FB681B681A6121E03B891B0A7F
:1046A0009BB2DAB2FB681B681A617A6A396AF868E9
:1046B00000F020FA0346002B0DD0FB681B6C042B86
:1046C00007D1FB681B681A68FB681B6842F400721C
:1046D0001A60012305E03B89DAB2FB681B681A61A6
:1046E000002318461837BD4680BD00BF02000100F8
:1046F00080B588B002AFF860084611461A460346F6
:104700007B810B463B811346FB80FB681B681A6864
:10471000FB681B6842F480621A60FB681B681A68B9
:10472000FB681B6842F480721A607B6A00933B6AE4
:1047300000224FF00111F86800F0C2F80346002B88
:104740000DD0FB681B681B6803F48073B3F5807F92
:1047500003D1FB684FF400721A640323AAE07B893B
:10476000DBB21A46FB681B6802F0FE021A617B6A24
:104770003A6A5249F86800F01DF90346002B01D04F
:10478000012397E000237B61FB681B685B697B6109
:10479000FB681B689B697B617B697A6A396AF86888
:1047A00000F0A8F90346002B0DD0FB681B6C042B0E
:1047B00007D1FB681B681A68FB681B6842F400722B
:1047C0001A60012376E0FB88012B05D13B89DAB220
:1047D000FB681B681A6121E03B891B0A9BB2DAB2B5
:1047E000FB681B681A617A6A396AF86800F082F916
:1047F0000346002B0DD0FB681B6C042B07D1FB6814
:104800001B681A68FB681B6842F400721A60012377
:1048100050E03B89DAB2FB681B681A617A6A396A30
:10482000F86800F067F90346002B0DD0FB681B6C9D
:10483000042B07D1FB681B681A68FB681B6842F4ED
:1048400000721A60012335E0FB681B681A68FB6878
:104850001B6842F480721A607B6A00933B6A0022F4
:104860004FF00111F86800F02BF80346002B0DD033
:10487000FB681B681B6803F48073B3F5807F03D16A
:10488000FB684FF400721A64032313E07B89DBB2E8
:1048900043F00103DAB2FB681B681A617B6A3A6A6B
:1048A0000649F86800F086F80346002B01D0012382
:1048B00000E0002318461837BD4680BD0200010005
:1048C00080B584B000AFF860B9603B601346FB71FF
:1048D00048E03B68B3F1FF3F44D0FEF7CFFA024611
:1048E000BB69D31A3A689A4202D33B68002B39D18C
:1048F000BB681B0CDBB2012B0DD1FB681B685B692D
:10490000DA43BB6813409BB2002B0CBF012300238A
:10491000DBB21A460CE0FB681B689B69DA43BB6894
:1049200013409BB2002B0CBF01230023DBB21A46BD
:10493000FB799A4216D1FB6800221A63FB68202299
:1049400083F83D20FB68002283F83E20FB681B6C47
:1049500043F02002FB681A64FB68002283F83C20C5
:10496000012323E0BB681B0CDBB2012B0DD1FB68DC
:104970001B685B69DA43BB6813409BB2002B0CBF1A
:1049800001230023DBB21A460CE0FB681B689B691D
:10499000DA43BB6813409BB2002B0CBF01230023FA
:1049A000DBB21A46FB799A4293D00023184610379F
:1049B000BD4680BD80B584B000AFF860B9607A6054
:1049C0003B6071E0FB681B685B6903F48063B3F5CF
:1049D000806F23D1FB681B681A68FB681B6842F470
:1049E00000721A60FB681B686FF480625A61FB6892
:1049F00000221A63FB68202283F83D20FB68002216
:104A000083F83E20FB681B6C43F00402FB681A64C9
:104A1000FB68002283F83C20012367E07B68B3F148
:104A2000FF3F41D0FEF72AFA02463B68D31A7A6864
:104A30009A4202D37B68002B36D1BB681B0CDBB2D9
:104A4000012B0CD1FB681B685B69DA43BB68134020
:104A50009BB2002B14BF01230023DBB20BE0FB68E9
:104A60001B689B69DA43BB6813409BB2002B14BFE1
:104A700001230023DBB2002B16D0FB6800221A634F
:104A8000FB68202283F83D20FB68002283F83E204B
:104A9000FB681B6C43F02002FB681A64FB68002271
:104AA00083F83C20012321E0BB681B0CDBB2012B07
:104AB0000CD1FB681B685B69DA43BB6813409BB28F
:104AC000002B14BF01230023DBB20BE0FB681B6843
:104AD0009B69DA43BB6813409BB2002B14BF0123D0
:104AE0000023DBB2002B7FF46DAF00231846103794
:104AF000BD4680BD80B584B000AFF860B9607A6013
:104B000034E0F86800F0E3F80346002B01D00123FD
:104B100034E0BB68B3F1FF3F28D0FEF7AFF902469F
:104B20007B68D31ABA689A4202D3BB68002B1DD1A6
:104B3000FB681B685B6903F08003802B16D0FB6861
:104B400000221A63FB68202283F83D20FB680022C4
:104B500083F83E20FB681B6C43F02002FB681A645C
:104B6000FB68002283F83C20012307E0FB681B68F8
:104B70005B6903F08003802BC3D1002318461037F4
:104B8000BD4680BD80B584B000AFF860B9607A6082
:104B900034E0F86800F09BF80346002B01D00123B5
:104BA00034E0BB68B3F1FF3F28D0FEF767F9024657
:104BB0007B68D31ABA689A4202D3BB68002B1DD116
:104BC000FB681B685B6903F00403042B16D0FB68C9
:104BD00000221A63FB68202283F83D20FB68002234
:104BE00083F83E20FB681B6C43F02002FB681A64CC
:104BF000FB68002283F83C20012307E0FB681B6868
:104C00005B6903F00403042BC3D10023184610375B
:104C1000BD4680BD80B584B000AFF860B9607A60F1
:104C200049E0FB681B685B6903F01003102B19D186
:104C3000FB681B686FF010025A61FB6800221A6360
:104C4000FB68202283F83D20FB68002283F83E2089
:104C5000FB681A6CFB681A64FB68002283F83C202E
:104C6000012330E0FEF70AF902467B68D31ABA68DE
:104C70009A4202D3BB68002B1DD1FB681B685B699D
:104C800003F04003402B16D0FB6800221A63FB6838
:104C9000202283F83D20FB68002283F83E20FB6839
:104CA0001B6C43F02002FB681A64FB68002283F847
:104CB0003C20012307E0FB681B685B6903F04003AD
:104CC000402BAED1002318461037BD4680BD80B4BE
:104CD00083B000AF78607B681B685B6903F4806316
:104CE000B3F5806F1BD17B681B686FF480625A61DB
:104CF0007B6800221A637B68202283F83D207B6852
:104D0000002283F83E207B681B6C43F004027B6822
:104D10001A647B68002283F83C20012300E0002312
:104D200018460C37BD4680BC7047000080B586B081
:104D300000AF78607B68002B01D1012372E27B68B1
:104D40001B6803F00103002B00F08780924B5B6827
:104D500003F00C03042B0CD08F4B5B6803F00C03A7
:104D6000082B12D18C4B5B6803F48033B3F5803F82
:104D70000BD1894B1B6803F40033002B6CD07B688C
:104D80005B68002B68D101234CE27B685B68B3F55C
:104D9000803F06D1804B1B687F4A43F48033136009
:104DA0002EE07B685B68002B0CD17B4B1B687A4A3A
:104DB00023F480331360784B1B68774A23F48023F5
:104DC00013601DE07B685B68B3F5A02F0CD1724BBC
:104DD0001B68714A43F4802313606F4B1B686E4A53
:104DE00043F4803313600BE06B4B1B686A4A23F477
:104DF00080331360684B1B68674A23F48023136079
:104E00007B685B68002B13D0FEF738F8386108E048
:104E1000FEF734F802463B69D31A642B01D9032309
:104E200000E25D4B1B6803F40033002BF0D014E06C
:104E3000FEF724F8386108E0FEF720F802463B69E7
:104E4000D31A642B01D90323ECE1534B1B6803F401
:104E50000033002BF0D100E000BF7B681B6803F03B
:104E60000203002B63D04C4B5B6803F00C03002B58
:104E70000BD0494B5B6803F00C03082B1CD1464B4D
:104E80005B6803F48033002B16D1434B1B6803F09F
:104E90000203002B05D07B681B69012B01D0012385
:104EA000C0E13D4B1B6823F0F8027B685B69DB00C7
:104EB000394913430B603AE07B681B69002B20D013
:104EC000364B01221A60FDF7D9FF386108E0FDF783
:104ED000D5FF02463B69D31A022B01D90323A1E176
:104EE0002D4B1B6803F00203002BF0D02A4B1B68EC
:104EF00023F0F8027B685B69DB00274913430B60F2
:104F000015E0264B00221A60FDF7B8FF386108E073
:104F1000FDF7B4FF02463B69D31A022B01D90323E4
:104F200080E11D4B1B6803F00203002BF0D17B686E
:104F30001B6803F00803002B3AD07B689B69002BA9
:104F400019D0174B01221A60FDF798FF386108E06D
:104F5000FDF794FF02463B69D31A022B01D90323C4
:104F600060E10D4B5B6A03F00203002BF0D00120DF
:104F700000F0FEFA1CE00A4B00221A60FDF77EFFEB
:104F800038610FE0FDF77AFF02463B69D31A022B26
:104F900008D9032346E100BF00100240000042424E
:104FA00080044242924B5B6A03F00203002BE9D17A
:104FB0007B681B6803F00403002B00F0A68000232D
:104FC000FB758B4BDB6903F08053002B0DD1884BB5
:104FD000DB69874A43F08053D361854BDB6903F07B
:104FE0008053BB60BB680123FB75824B1B6803F4D5
:104FF0008073002B18D17F4B1B687E4A43F480736B
:105000001360FDF73BFF386108E0FDF737FF02460C
:105010003B69D31A642B01D9032303E1754B1B6849
:1050200003F48073002BF0D07B68DB68012B06D182
:105030006F4B1B6A6E4A43F0010313622DE07B68DD
:10504000DB68002B0CD16A4B1B6A694A23F0010311
:105050001362674B1B6A664A23F0040313621CE069
:105060007B68DB68052B0CD1614B1B6A604A43F0FF
:10507000040313625E4B1B6A5D4A43F00103136233
:105080000BE05B4B1B6A5A4A23F001031362584B37
:105090001B6A574A23F0040313627B68DB68002B0A
:1050A00015D0FDF7EBFE38610AE0FDF7E7FE02469A
:1050B0003B69D31A41F28832934201D90323B1E00C
:1050C0004B4B1B6A03F00203002BEED014E0FDF7FC
:1050D000D5FE38610AE0FDF7D1FE02463B69D31ADE
:1050E00041F28832934201D903239BE0404B1B6A73
:1050F00003F00203002BEED1FB7D012B05D13C4BCD
:10510000DB693B4A23F08053D3617B68DB69002B6A
:1051100000F08780364B5B6803F00C03082B61D0EE
:105120007B68DB69022B46D1334B00221A60FDF706
:10513000A5FE386108E0FDF7A1FE02463B69D31ADF
:10514000022B01D903236DE0294B1B6803F0007388
:10515000002BF0D17B681B6AB3F5803F08D1244B4C
:105160005B6823F400327B689B68214913434B60E2
:105170001F4B5B6823F474127B68196A7B685B6A57
:105180000B431B4913434B601B4B01221A60FDF775
:1051900075FE386108E0FDF771FE02463B69D31ADF
:1051A000022B01D903233DE0114B1B6803F0007370
:1051B000002BF0D035E0104B00221A60FDF75EFEA8
:1051C000386108E0FDF75AFE02463B69D31A022B0C
:1051D00001D9032326E0064B1B6803F00073002B64
:1051E000F0D11EE07B68DB69012B07D1012319E0B8
:1051F0000010024000700040600042420B4B5B68B0
:10520000FB60FB6803F480327B681B6A9A4206D11C
:10521000FB6803F470127B685B6A9A4201D0012339
:1052200000E0002318461837BD4680BD001002403C
:1052300080B584B000AF786039607B68002B01D105
:105240000123D0E06A4B1B6803F007033A689A42D7
:1052500010D9674B1B6823F0070265493B6813436D
:105260000B60634B1B6803F007033A689A4201D056
:105270000123B8E07B681B6803F00203002B20D0F9
:105280007B681B6803F00403002B05D0594B5B6857
:10529000584A43F4E06353607B681B6803F00803DB
:1052A000002B05D0534B5B68524A43F46053536064
:1052B000504B5B6823F0F0027B689B684D491343B9
:1052C0004B607B681B6803F00103002B40D07B68B8
:1052D0005B68012B07D1474B1B6803F40033002B9D
:1052E00015D101237FE07B685B68022B07D1414B1E
:1052F0001B6803F00073002B09D1012373E03D4BC1
:105300001B6803F00203002B01D101236BE0394B32
:105310005B6823F003027B685B68364913434B608C
:10532000FDF7ACFDF8600AE0FDF7A8FD0246FB685A
:10533000D31A41F28832934201D9032353E02D4B13
:105340005B6803F00C027B685B689B009A42EBD1C0
:10535000274B1B6803F007033A689A4210D2244B8C
:105360001B6823F0070222493B6813430B60204B64
:105370001B6803F007033A689A4201D0012332E028
:105380007B681B6803F00403002B08D0194B5B6893
:1053900023F4E0627B68DB68164913434B607B684B
:1053A0001B6803F00803002B09D0124B5B6823F441
:1053B00060527B681B69DB000E4913434B6000F0B1
:1053C00021F802460B4B5B681B0903F00F030A49E7
:1053D000CB5C22FA03F3094A1360094B1B68184699
:1053E000FDF75CFB002318461037BD4680BD00BFAB
:1053F0000020024000100240A0E800080C0000203D
:105400001000002080B487B000AF0023FB600023B1
:10541000BB6000237B6100237B6000233B611E4B4C
:105420005B68FB60FB6803F00C03042B02D0082BC5
:1054300003D027E0194B3B6127E0FB689B0C03F08E
:105440000F03174AD35C7B60FB6803F48033002BA7
:1054500010D0114B5B685B0C03F00103114AD35C65
:10546000BB607B680D4A03FB02F2BB68B2FBF3F33F
:105470007B6104E07B680C4A02FB03F37B617B6980
:105480003B6102E0054B3B6100BF3B6918461C379E
:10549000BD4680BC704700BF0010024000127A0079
:1054A000B8E80008C8E8000800093D0080B400AF73
:1054B000024B1B681846BD4680BC70470C0000209C
:1054C00080B500AFFFF7F2FF0246054B5B681B0A91
:1054D00003F007030349CB5C22FA03F3184680BDAF
:1054E00000100240B0E8000880B500AFFFF7DEFF13
:1054F0000246054B5B68DB0A03F007030349CB5CFC
:1055000022FA03F3184680BD00100240B0E80008FC
:1055100080B483B000AF786039607B680F221A6076
:10552000114B5B6803F003027B685A600E4B5B68AB
:1055300003F0F0027B689A600B4B5B6803F4E06257
:105540007B68DA60084B5B68DB0803F4E0627B6829
:105550001A61064B1B6803F007023B681A6000BF24
:105560000C37BD4680BC704700100240002002404E
:1055700080B485B000AF78600A4B1B680A4AA2FB72
:1055800003235B0A7A6802FB03F3FB6000BFFB683E
:105590005A1EFA60002BF9D100BF00BF1437BD4678
:1055A00080BC70470C000020D34D621080B586B0DF
:1055B00000AF786000233B610023FB607B681B68C1
:1055C00003F00103002B7DD00023FB754F4BDB69FB
:1055D00003F08053002B0DD14C4BDB694B4A43F059
:1055E0008053D361494BDB6903F08053BB60BB68D8
:1055F0000123FB75464B1B6803F48073002B18D105
:10560000434B1B68424A43F480731360FDF736FC3A
:10561000386108E0FDF732FC02463B69D31A642B7F
:1056200001D903236DE03A4B1B6803F48073002B10
:10563000F0D0364B1B6A03F44073FB60FB68002B11
:105640002ED07B685B6803F44073FA689A4227D0D7
:105650002E4B1B6A23F44073FB602E4B01221A6011
:105660002C4B00221A60294AFB681362FB6803F086
:105670000103002B14D0FDF701FC38610AE0FDF7AF
:10568000FDFB02463B69D31A41F28832934201D9AD
:10569000032336E01D4B1B6A03F00203002BEED000
:1056A0001A4B1B6A23F440727B685B6817491343EB
:1056B0000B62FB7D012B05D1144BDB69134A23F0F0
:1056C0008053D3617B681B6803F00203002B08D072
:1056D0000E4B5B6823F440427B689B680B49134385
:1056E0004B607B681B6803F01003002B08D0074B4E
:1056F0005B6823F480027B68DB68044913434B60DA
:10570000002318461837BD4680BD00BF0010024078
:10571000007000404004424280B582B000AF786023
:105720007B68002B01D1012376E07B685B6A002B4C
:1057300008D17B685B68B3F5827F09D07B68002263
:10574000DA6105E07B6800221A617B6800225A61F9
:105750007B6800229A627B6893F85130DBB2002BA1
:1057600006D17B68002283F850207868FDF700F9A5
:105770007B68022283F851207B681B681A687B686B
:105780001B6822F040021A607B685B6803F4827237
:105790007B689B6803F404431A437B68DB6803F46B
:1057A00000631A437B681B6903F002031A437B689A
:1057B0005B6903F001031A437B689B6903F4007380
:1057C0001A437B68DB6903F038031A437B681B6A62
:1057D00003F0800342EA03017B689B6A03F40052F2
:1057E0007B681B680A431A607B689B691A0C7B689C
:1057F0001B6802F004025A607B681B68DA697B68E8
:105800001B6822F40062DA617B6800225A657B68BB
:10581000012283F85120002318460837BD4680BD79
:1058200080B582B000AF78607B68002B01D1012386
:1058300041E07B6893F83D30DBB2002B06D17B68FA
:10584000002283F83C20786800F039F87B68022257
:1058500083F83D207B681A687B680433194610463C
:1058600000F0B4F97B68012283F846207B680122AE
:1058700083F83E207B68012283F83F207B68012269
:1058800083F840207B68012283F841207B68012255
:1058900083F842207B68012283F843207B68012241
:1058A00083F844207B68012283F845207B6801222D
:1058B00083F83D20002318460837BD4680BD80B4DC
:1058C00083B000AF786000BF0C37BD4680BC704726
:1058D00080B485B000AF78607B6893F83D30DBB270
:1058E000012B01D001233AE07B68022283F83D209E
:1058F0007B681B68DA687B681B6842F00102DA602B
:105900007B681B68184A93420ED07B681B68B3F112
:10591000804F09D07B681B68144A934204D07B688F
:105920001B68134A934211D17B681B689B6803F084
:105930000703FB60FB68062B10D07B681B681A68A6
:105940007B681B6842F001021A6007E07B681B68F5
:105950001A687B681B6842F001021A60002318462F
:105960001437BD4680BC7047002C01400004004045
:105970000008004080B582B000AF78607B681B688B
:105980001B6903F00203022B22D17B681B68DB68D2
:1059900003F00203022B1BD17B681B686FF002022D
:1059A0001A617B6801221A777B681B689B6903F088
:1059B0000303002B03D0786800F0EDF805E0786869
:1059C00000F0E0F8786800F0EFF87B6800221A77C2
:1059D0007B681B681B6903F00403042B22D17B68DE
:1059E0001B68DB6803F00403042B1BD17B681B6876
:1059F0006FF004021A617B6802221A777B681B68C9
:105A00009B6903F44073002B03D0786800F0C3F85F
:105A100005E0786800F0B6F8786800F0C5F87B68B3
:105A200000221A777B681B681B6903F00803082BA8
:105A300022D17B681B68DB6803F00803082B1BD1AD
:105A40007B681B686FF008021A617B6804221A7772
:105A50007B681B68DB6903F00303002B03D07868C5
:105A600000F099F805E0786800F08CF8786800F0AC
:105A70009BF87B6800221A777B681B681B6903F020
:105A80001003102B22D17B681B68DB6803F0100326
:105A9000102B1BD17B681B686FF010021A617B68AA
:105AA00008221A777B681B68DB6903F44073002BBC
:105AB00003D0786800F06FF805E0786800F062F8CD
:105AC000786800F071F87B6800221A777B681B68A1
:105AD0001B6903F00103012B0ED17B681B68DB6897
